:020000040800F2
:100000004006002031120008A9100008AB100008BB
:1000100000000000000000000000000000000000E0
:10002000000000000000000000000000AD1000080B
:100030000000000000000000AF100008B110000830
:100040000B0700089B070008F70C0008EF0F0008DB
:10005000DF110008EB11000851120008BB10000866
:1000600053120008551200085712000859120008D0
:100070005B1200085D1200085F12000861120008A0
:100080006312000865120008671200086912000870
:100090006B1200086D1200086F1200087112000840
:1000A000731200087512000877120008F510000896
:1000B000791200087B1200087D1200087F120008E8
:1000C000F8B504001AD0A04D2078C00718D568688C
:1000D0000C21014004290CD068680C21014008293A
:1000E00049D16868C0214902014080204002814214
:1000F00041D12868800303D56068002800D1E4E17D
:10010000207880071FD5F827FF4368680C2101403D
:100110000CD068680C210140082963D16868C021AF
:10012000490201408020000281425BD1286880079B
:1001300003D5E068012800D0C7E12868074020699E
:10014000C00038432860207800077CD50227E0698A
:100150000028686A68D001210143696200F092FAC0
:100160000600686A38406ED100F08CFA801B0228C5
:10017000F7D90320F2BD6168012909D0B0480029F0
:100180000CD005290AD128688021C90201432960C1
:100190002868802149020143296006E02968A94AAC
:1001A0000A402A602968084028608027BF026068EA
:1001B00000280BD000F066FA0600286838409FD16E
:1001C00000F060FA801B6528F7D3D2E700F05AFAF6
:1001D00006002868384093D000F054FA801B652848
:1001E000F7D3C6E7E068002828680ED00121014354
:1001F000296000F047FA0600286880079DD400F0C7
:1002000041FA801B0228F7D9B3E70121884328600F
:1002100000F038FA06002868800794D500F032FA1A
:10022000801B0228F7D9A4E701218843686200F007
:1002300029FA0600686A384005D000F023FA801BCE
:100240000228F7D995E72078400761D50020009073
:1002500080204005E969014008D1E9690143E9616D
:10026000E96908400090009801200090994F386893
:10027000C0050FD43868A90D0143396000F002FAB7
:1002800006003868C00505D400F0FCF9801B65281D
:10029000F7D36EE7A068012809D0002801D1286AA9
:1002A0000AE00528286A07D1042101432962286A47
:1002B00001210143296206E0012188432862286A5E
:1002C0000421884328620227A06800280CD000F08F
:1002D000D9F90600286A384013D100F0D3F9801B01
:1002E0007D498842F6D344E700F0CCF90600286A3D
:1002F000384006D000F0C6F9801B77498842F6D313
:1003000037E70098002803D0E86974490140E961A3
:100310002078C00620D56069F826F643042201281B
:1003200050D1686B02436A63686B012101436963C2
:1003300000F0A8F90700686B800707D400F0A2F965
:10034000C01B0228F7D914E700100240686B064072
:10035000A069C000304368630C272078800614D55C
:10036000686838400C2809D068683840082843D1AC
:10037000686879030140780381423DD1686B80034E
:1003800003D5206A012800D09FE0606A002800D1D0
:100390009DE069680F40082F00D181E08027BF04ED
:1003A0009149022828686DD10140296000F06AF95E
:1003B00006002868384047D000F064F9801B022806
:1003C000F7D9D6E60421C9438842686B02D10140BF
:1003D0006963BBE702436A63686B01218843686312
:1003E00000F050F90600686B8007B5D500F04AF9B7
:1003F000801B0228F7D9BCE6206A0028686B0FD062
:10040000802149020143696300F03CF90600686BF2
:100410008003BAD400F036F9801B0228F7D9A8E689
:1004200008490140696300F02DF90600686B8003FC
:10043000ABD500F027F9801B0228F7D999E600BF59
:10044000FFFFFBFFFFFFFEFFE86A0F218843216BE0
:100450000143E962686879490140E06A0843A16A9A
:1004600001436960286879080143296000F00AF9AE
:100470000400286838402AD100F004F9001B022843
:10048000F7D976E60140296000F0FCF804002868FE
:1004900038401CD000F0F6F8001B0228F7D968E6B7
:1004A000012812D06868E96AC02252020240A36A99
:1004B0009A420AD10907090F226B914205D1F02116
:1004C00089030140E06A814201D00120F2BD002091
:1004D000F2BD00000070004089130000FFFFFFEF35
:1004E000F8B5040066D0009155480068C107C90FEF
:1004F000009881420CD25248016801229143009A2F
:100500000A4302600068C107C90F0098814251D1B7
:1005100021684C4D022001420CD0490704D569687E
:10052000E022D2000A436A606968F0229143A2681F
:100530000A436A600127216839402BD061680204B0
:10054000012901D1286808E0022903D12868800127
:1005500009D42FE0032903D1686B024003D129E0BD
:100560002A68104026D068680322904301436960DE
:1005700000F088F8060068680C210140606880007F
:10058000814207D000F07EF8801B2F498842F2D3C9
:100590000320F2BD2A48009902683A4091420BD2EA
:1005A0000168B943009A0A43026000680740009856
:1005B000874201D00120F2BD2078400705D5686848
:1005C00022490140E0680843686000F00FF82049C4
:1005D0006A681206120F895CC8401E490860032031
:1005E00000F056F80020F2BDFFFFFFFEF0B51A49FB
:1005F0000B681A481A4A0C241C40082C02D00C2CF8
:100600001AD0F0BD0F2500BF16A49E0C2E40A45D8D
:1006100018A6896A0D40715DC0256D022E001E402E
:1006200080277F02BE4203D02B40AB4200D1100096
:1006300000F050F86043F0BD1000F0BDFF7FC2FF36
:10064000002002400010024089130000FFF8FFFF65
:10065000201200080C0000200410024000127A0052
:10066000006CDC0202030405060708090A0B0C0DE6
:100670000E0F10100102030405060708090A0B0CEF
:100680000D0E0F1001484068704700BF00000020A9
:1006900038B505000D4CFA208000217800F01AF8DA
:1006A00001000B48006800F015F800F059F8002828
:1006B0000AD1042D08D2002229000020C04300F0F6
:1006C00042F8A560002032BD012032BD00000020AC
:1006D0000C000020094214D088420FD30122030CE1
:1006E00001D100041204002300185B418B4200D3A7
:1006F0005B1A5241F8D31900100070470100002026
:10070000704708B500F048F808BDFEE710B5C30013
:1007100018221A40FF249440E3438907090E9140B0
:10072000020004D4184892089200801806E0174A84
:100730000007000F08388008800010180268134076
:100740001943016010BD80B5FFF7E0FF01BD010056
:1007500005D40121C006C00E81400D4801607047DC
:1007600010B5401E80214904884201D3012010BDEC
:10077000084C606003210020C043FFF7C7FF002042
:10078000A0600721216010BD00E400E01CED00E046
:1007900000E100E010E000E07047FEE710B5A94876
:1007A00041688022D2010A4342600168802292029D
:1007B0000A4302609020C0050168A34A0A40026013
:1007C0000168802212030A430260016880229203BA
:1007D0000A43026001688022D2030A430260416832
:1007E000AE4A0A4042604168AD4A0A4042604168F0
:1007F000AC4A0A404260416AAB4A0A404262416ADE
:10080000882252000A434262A8480168A84A0A4066
:100810000260A849C1604168A74A0A4042600121BC
:1008200002680A43026002680823134303600268F7
:1008300004231343036002682023134303609F4A89
:100840001368CC061C4314604268CB051343436015
:1008500002688B06134303604269120E120642615E
:100860004269232313434361BC484170017010BDAA
:1008700010B50200924802E020005B1E07D10B0079
:10088000591E1B0609D013785840521C08234408EF
:10089000C007F1D5BE486040EFE710BDB048B14990
:1008A00009680180BB49096841807047AC480188EC
:1008B000AC4A11604088B7490860704770B5C0B055
:1008C0000500A64C212806D3FF20001D215C022034
:1008D00000F078F82EE00E006078A0700320E07041
:1008E00070002071FFF7DAFF00200BE029184900A3
:1008F000611882229200895A4200A2180B0A537191
:100900009171401CB042F1DB2679F61CB51CEDB2AA
:10091000812189006554F2B2A11C684600F0DEF91D
:10092000F1B26846FFF7A4FF6055000A611C485504
:1009300000F01AF940B070BDF8B5C0B00A00874C9D
:100940000100212906D3FF20001D215C022000F0B8
:1009500039F835E0002311E058002018FF250A354A
:100960004519C81840002618822080002F783F02C1
:10097000BC466F7865463D4335525B1C9342EBDBCA
:100980000D001600FFF792FF6078A0701020E07055
:10099000280A20716571300AA071E6710820812152
:1009A000890060540622A11C684600F097F90621D0
:1009B0006846FFF75DFF2072000A607200F0D4F80D
:1009C00041B0F0BD1CB5654C6278A27080220A432C
:1009D000E27020710322A11C684600F07FF9032118
:1009E0006846FFF745FF6071000AA07100F0BCF88F
:1009F00013BD10B5864B1A78D878010218790143D7
:100A0000587800029C782043032A02D0102A03D091
:100A100012E0FFF753FF10BD4218102A02D3102135
:100A200002200BE05A794C00A24202D01021032090
:100A300004E0FFF781FF10BD11000120FFF7C2FFA6
:100A400010BD000014100240FFFF03FF70B5C0B0DE
:100A5000424C8C48255C042D1ADB81204000211873
:100A600008786278904213D12E00FE36F2B26846C2
:100A700000F034F9F1B26846FFF7FAFE61198022FE
:100A8000520089184A78120209780A43904201D02C
:100A9000002000E0012040B070BD0000FFFDFFFF1E
:100AA000FFFBFFFFFFF7FFFF0FF0FFFF00380140E4
:100AB000FFEFFFEF41030000FFCFFFFF00E100E089
:100AC000FFFF000030B525486F4941186F4A2023C9
:100AD000D4691C400BD01468234008D0938C4C7808
:100AE000041981256D0063554B785B1C4B70D30C4A
:100AF000D4691C4007D05468240204D5146A2343E7
:100B000013620123CB7040238024D569254013D084
:100B100015682C4010D00C788D78AC4205D20019A5
:100B200080781085641C0C7006E010688024A04357
:100B30001060106818431060D06918400DD010681C
:100B400003400AD0106840239843106005480268AB
:100B50004F4B134003600020087130BD100000208F
:100B600018020020140000484A48017900290DD1DC
:100B700001700121017148480168802212010A4375
:100B800002604248016880220A4302607047000008
:100B900001A0000014080048F8B51E4C3948201880
:100BA0008078002833D03D4E0025B570812040006C
:100BB00020180090FFF74AFF002822D0FF20001DD8
:100BC000201801780A061CD403291AD140783178FC
:100BD000421D914215DB002140080CE04A00A2189A
:100BE000FF239B1DD3181F783F025B781F4382238E
:100BF0009B00D752491C814201DA1029EED3FFF73E
:100C000055FE357080214900009800F075F8F1BD5F
:100C10001301002010000020F8B5224E19483418A6
:100C200080277F000025307801280FD1A078002888
:100C300026D0A570FFF70AFF002801D0FFF7D9FEE4
:100C400025703900881C301800F056F830780028DC
:100C500016D1FFF7A1FF12480068E17800290FD0F4
:100C60008A2189007158401AFF21F631884207D342
:100C7000E5702570A5703900881C301800F03CF82C
:100C8000F1BD000003020000020200000038014034
:100C9000FFF7FFFF1202002014000048130200209B
:100CA0003C0200201000002070B4103A03D378C931
:100CB000103A78C0FBD2530701D318C918C001D528
:100CC00008C908C0D20704D30B880380891C801C84
:100CD000002A01D50B78037070BC70478B0701D1D7
:100CE0008307E1D0124205D00B78491C0370401CE9
:100CF000521EF9D17047FEE7002200BF094202D020
:100D0000491E4254FCD17047FFB500220F230293C5
:100D10002DE0052403E0624CA042FAD104246D4684
:100D20002D78AC403443019D2C605E4CA568DC43BB
:100D300025404E68F60200D51D435A4EB560F56851
:100D400025404F68BF0200D51D43F56075682540FA
:100D50004F68BF0300D51D43756035682C404D6852
:100D6000ED0302D525001C002C433460521C0B6897
:100D70001C00D44000D191E0012595402B40F5D0D6
:100D800054000326A640F74301974E68B707BF0FEC
:100D9000012F03D0B607B60F022E0ED18668019F31
:100DA0003740CE68A6403E4386604668AE434D68F5
:100DB000EF06FF0F97403743476095006E4675700A
:100DC0000D79AD07AD0F032D26D0C568019E2E40CD
:100DD0008D68A5403543C5600D79AD07AD0F022D77
:100DE0001AD1D508AD0045192E6A03966E4676785D
:100DF0001C2737406E463770039EB446029F6E46EE
:100E00003678B7406646BE43B4460F696E463678BC
:100E1000B740664637432F6207680325019E3E4070
:100E20004F682F40A740374307604C682E04264088
:100E30009CD001241C4E366826431B4F3E603E4624
:100E4000366826400196019E184E9708BF00F61995
:100E50000196019E366803966E4676780C273740D9
:100E60006E463770039EB446029F6E463678B74092
:100E70006646BE439027FF05B84201D100244EE7E5
:100E80000B4FB842FBD00B4CA04201D1022446E7E5
:100E9000094CA04200D03EE7032440E7FFBD00001C
:100EA00000100048000401401810024008000140F2
:100EB0000004004800080048000C004880B500F01D
:100EC00097F800F069F800F0A3F8FFF767FC2A48EC
:100ED0000168802212030A430260016880229202A4
:100EE0000A43026025480168254A0A4002600168F9
:100EF000244A0A4002609021C9050A68C0239A4327
:100F00000A600A68204B13400B600A681F4B1340AD
:100F10000B6002688023DB041343036002688023B4
:100F20005B05134303600A68402313430B600A68A0
:100F300080235B0013430B600A688023DB001343AC
:100F40000B604268124B134043604268114B1340E0
:100F500043604868082290434860486810229043E4
:100F600048604868202290434860486902434A61CB
:100F7000FFF752FEFCE70000141002400008004892
:100F8000FFFFFFF3FFFFFFCFFFFCFFFFFFF3FFFFBC
:100F9000FFDFFFFFFFBFFFFF18B591B0342104A8AA
:100FA000FFF7AAFE684600210022002300241EC08D
:100FB0000220049001200790102008900D9404A8AE
:100FC000FFF77EF8002801D000F00FF8072000900E
:100FD00001940294039400216846FFF781FA0028E7
:100FE00001D000F002F812B010BD72B6FEE7FEE7C5
:100FF00080B50648016810220A4302600320FFF70B
:1010000047FB00F039F8002002BD0000002002403C
:1010100080B586B01421002201A8FFF76FFE802062
:10102000C00313490A6802430A600A68104000902E
:1010300000988020C0020A6802430A6009680840DC
:1010400000900098F02001908420800302900120FD
:10105000039001A90748FFF757FE0022002107204F
:10106000FFF771FB0720FFF772FB07B000BD00BF61
:10107000141002400004004881B0012009490A68A8
:1010800002430A600A6810400090009880204005E2
:101090004A6802434A60496808400090009801B0DD
:1010A000704700BF18100240FEE7FEE77047704728
:1010B0000D480168491C016070470C4880210C4AAA
:1010C00013680B4004D011600168530C4B4003605F
:1010D000402113680B4005D0116001688022D201C5
:1010E0004A400260704700003C020020140800489B
:1010F0001404014080B5FFF7E5FC01BD70B4012187
:10110000002213E00368001D0B4202D04D46EB188D
:101110005B1E1A601B1D241F042CFAD21D00A6079B
:1011200001D51A80AD1C0C4000D02A700468001D47
:10113000002CE7D170BC704730B401210EE0036889
:10114000C318446808300C4202D04D462C19641E66
:101150001D6825601B1D241D121FF9D10268001D8A
:10116000002AECD130BC704710B5074979441831DA
:10117000064C7C44163404E0081D0A688918884728
:101180000100A142F8D110BD0800000028000000B5
:101190006DFFFFFF30020000100000200000000083
:1011A00099FFFFFF100000009800000000000020E1
:1011B0000000000000F00DF8002801D0FFF7D4FF78
:1011C00000BF00BF002000BF00BFFFF777FE00F0A8
:1011D00002F80120704780B500F002F801BDFEE77B
:1011E0000746384600F002F8FBE7FEE780B500BF8F
:1011F00000BF024A11001820ABBEFBE72600020028
:101200000548014603B4684680F3098800BF00BF63
:1012100000BF00BFFFF7CEFFA5EDF5FE7047000051
:101220000000000000000000010203040607080996
:1012300001488047014800471D12000801120008BC
:1012400001000000000000000400000000127A000D
:10125000FEE7FEE7FEE7FEE7FEE7FEE7FEE7FEE766
:10126000FEE7FEE7FEE7FEE7FEE7FEE7FEE7FEE756
:10127000FEE7FEE7FEE7FEE7FEE7FEE7FEE7FEE746
:0400000508001201DC
:00000001FF
