:020000040800F2
:100000006806002075110008F90F0008FB0F0008B2
:1000100000000000000000000000000000000000E0
:10002000000000000000000000000000FD0F0008BC
:100030000000000000000000FF0F00080110000891
:100040000B0700089B0700083F0F0008231100085A
:100050002F110008951100089711000803100008DF
:10006000991100089B1100089D1100089F110008BC
:10007000A1110008A3110008A5110008A71100088C
:10008000A9110008AB110008AD110008AF1100085C
:10009000B1110008B3110008B5110008B71100082C
:1000A000B9110008BB110008BD1100083910000883
:1000B000BF110008C1110008C3110008C5110008D4
:1000C000F8B504001AD0A04D2078C00718D568688C
:1000D0000C21014004290CD068680C21014008293A
:1000E00049D16868C0214902014080204002814214
:1000F00041D12868800303D56068002800D1E4E17D
:10010000207880071FD5F827FF4368680C2101403D
:100110000CD068680C210140082963D16868C021AF
:10012000490201408020000281425BD1286880079B
:1001300003D5E068012800D0C7E12868074020699E
:10014000C00038432860207800077CD50227E0698A
:100150000028686A68D001210143696200F092FAC0
:100160000600686A38406ED100F08CFA801B0228C5
:10017000F7D90320F2BD6168012909D0B0480029F0
:100180000CD005290AD128688021C90201432960C1
:100190002868802149020143296006E02968A94AAC
:1001A0000A402A602968084028608027BF026068EA
:1001B00000280BD000F066FA0600286838409FD16E
:1001C00000F060FA801B6528F7D3D2E700F05AFAF6
:1001D00006002868384093D000F054FA801B652848
:1001E000F7D3C6E7E068002828680ED00121014354
:1001F000296000F047FA0600286880079DD400F0C7
:1002000041FA801B0228F7D9B3E70121884328600F
:1002100000F038FA06002868800794D500F032FA1A
:10022000801B0228F7D9A4E701218843686200F007
:1002300029FA0600686A384005D000F023FA801BCE
:100240000228F7D995E72078400761D50020009073
:1002500080204005E969014008D1E9690143E9616D
:10026000E96908400090009801200090994F386893
:10027000C0050FD43868A90D0143396000F002FAB7
:1002800006003868C00505D400F0FCF9801B65281D
:10029000F7D36EE7A068012809D0002801D1286AA9
:1002A0000AE00528286A07D1042101432962286A47
:1002B00001210143296206E0012188432862286A5E
:1002C0000421884328620227A06800280CD000F08F
:1002D000D9F90600286A384013D100F0D3F9801B01
:1002E0007D498842F6D344E700F0CCF90600286A3D
:1002F000384006D000F0C6F9801B77498842F6D313
:1003000037E70098002803D0E86974490140E961A3
:100310002078C00620D56069F826F643042201281B
:1003200050D1686B02436A63686B012101436963C2
:1003300000F0A8F90700686B800707D400F0A2F965
:10034000C01B0228F7D914E700100240686B064072
:10035000A069C000304368630C272078800614D55C
:10036000686838400C2809D068683840082843D1AC
:10037000686879030140780381423DD1686B80034E
:1003800003D5206A012800D09FE0606A002800D1D0
:100390009DE069680F40082F00D181E08027BF04ED
:1003A0009149022828686DD10140296000F06AF95E
:1003B00006002868384047D000F064F9801B022806
:1003C000F7D9D6E60421C9438842686B02D10140BF
:1003D0006963BBE702436A63686B01218843686312
:1003E00000F050F90600686B8007B5D500F04AF9B7
:1003F000801B0228F7D9BCE6206A0028686B0FD062
:10040000802149020143696300F03CF90600686BF2
:100410008003BAD400F036F9801B0228F7D9A8E689
:1004200008490140696300F02DF90600686B8003FC
:10043000ABD500F027F9801B0228F7D999E600BF59
:10044000FFFFFBFFFFFFFEFFE86A0F218843216BE0
:100450000143E962686879490140E06A0843A16A9A
:1004600001436960286879080143296000F00AF9AE
:100470000400286838402AD100F004F9001B022843
:10048000F7D976E60140296000F0FCF804002868FE
:1004900038401CD000F0F6F8001B0228F7D968E6B7
:1004A000012812D06868E96AC02252020240A36A99
:1004B0009A420AD10907090F226B914205D1F02116
:1004C00089030140E06A814201D00120F2BD002091
:1004D000F2BD00000070004089130000FFFFFFEF35
:1004E000F8B5040066D0009155480068C107C90FEF
:1004F000009881420CD25248016801229143009A2F
:100500000A4302600068C107C90F0098814251D1B7
:1005100021684C4D022001420CD0490704D569687E
:10052000E022D2000A436A606968F0229143A2681F
:100530000A436A600127216839402BD061680204B0
:10054000012901D1286808E0022903D12868800127
:1005500009D42FE0032903D1686B024003D129E0BD
:100560002A68104026D068680322904301436960DE
:1005700000F088F8060068680C210140606880007F
:10058000814207D000F07EF8801B2F498842F2D3C9
:100590000320F2BD2A48009902683A4091420BD2EA
:1005A0000168B943009A0A43026000680740009856
:1005B000874201D00120F2BD2078400705D5686848
:1005C00022490140E0680843686000F00FF82049C4
:1005D0006A681206120F895CC8401E490860032031
:1005E00000F056F80020F2BDFFFFFFFEF0B51A49FB
:1005F0000B681A481A4A0C241C40082C02D00C2CF8
:100600001AD0F0BD0F2500BF16A49E0C2E40A45D8D
:1006100018A6896A0D40715DC0256D022E001E402E
:1006200080277F02BE4203D02B40AB4200D1100096
:1006300000F050F86043F0BD1000F0BDFF7FC2FF36
:10064000002002400010024089130000FFF8FFFF65
:10065000641100080C0000200410024000127A000F
:10066000006CDC0202030405060708090A0B0C0DE6
:100670000E0F10100102030405060708090A0B0CEF
:100680000D0E0F1001484068704700BF00000020A9
:1006900038B505000D4CFA208000217800F01AF8DA
:1006A00001000B48006800F015F800F059F8002828
:1006B0000AD1042D08D2002229000020C04300F0F6
:1006C00042F8A560002032BD012032BD00000020AC
:1006D0000C000020094214D088420FD30122030CE1
:1006E00001D100041204002300185B418B4200D3A7
:1006F0005B1A5241F8D31900100070470100002026
:10070000704708B500F048F808BDFEE710B5C30013
:1007100018221A40FF249440E3438907090E9140B0
:10072000020004D4184892089200801806E0174A84
:100730000007000F08388008800010180268134076
:100740001943016010BD80B5FFF7E0FF01BD010056
:1007500005D40121C006C00E81400D4801607047DC
:1007600010B5401E80214904884201D3012010BDEC
:10077000084C606003210020C043FFF7C7FF002042
:10078000A0600721216010BD00E400E01CED00E046
:1007900000E100E010E000E07047FEE780B582482D
:1007A0000168802212030A430260016880229202DB
:1007B0000A4302607D4801687D4A0A400260016880
:1007C0007C4A0A4002609021C9050A68C0239A4306
:1007D0000A600A68784B13400B600A68774B134035
:1007E0000B6002688023DB041343036002688023EC
:1007F0005B05134303600A68402313430B600A68D8
:1008000080235B0013430B600A688023DB001343E3
:100810000B6042686A4B134043604268694B134067
:10082000436048680822904348604868102290431B
:1008300048604868202290434860486902434A6102
:100840000521614800F0D0F801BD80B55F485E49E0
:100850000A78002A026803D080239B01134301E039
:10086000574B1340036049780029016803D0802268
:10087000D2010A4301E0534A0A40026000F001F845
:1008800001BD5348534909680180504909684180B6
:100890007047F8B505000C006A786888A988431885
:1008A000102B01D302234BE000264B4B032A02D02E
:1008B000102A1FD043E05878207003206070A88869
:1008C00040000090FFF7DDFF0098A07068880AE004
:1008D0003F49821952008F5A71003A0A6318DA7040
:1008E000221D5754761CA9888E42F1DB0098401DCA
:1008F000C0B2F2BD5A78227010226270344A09E008
:100900007300EB18DF793F021B7A1F4383195B00EA
:10091000D752761C8E42F3DB104601882D4A1160B7
:1009200040882A4908606888000AA0706888E070DA
:10093000A888000A2071A88860710820F2BD0123F0
:100940002978200000F0B4F8F2BD2348007801288F
:1009500000D07047F8B5FFB081B02048407800283B
:100960001ED01E4E002474701D4F3278390040A8EE
:1009700000F05FF800280DD13278694640A8FFF7F3
:1009800088FF05002A001749684600F076F8F570E0
:1009900000F034F9347080214900380000F024F868
:1009A0007FB002B0F0BD0000141002400008004803
:1009B000FFFFFFF3FFFFFFCFFFFCFFFFFFF3FFFF92
:1009C000FFDFFFFFFFBFFFFF6002002014080048A9
:1009D00038020020140000485802002011020020B4
:1009E0001001002010000020002200BF094202D0A8
:1009F000491E4254FCD1704701203E49487008709E
:100A0000704730B502003C48002302E020000CE0B3
:100A10005B1C8C1EA3420BDA14786040521C082524
:100A20004408C007F2D5354860406D1EF8D1EFE7A5
:100A300030BD70B505000C0016003100200000F03C
:100A40003EF8010018D12078287060786870A0788E
:100A50000002E17808436880207900026179084348
:100A6000A880002004E0211889792A189171401C7F
:100A7000B11F8842F7DB002070BD70B50C0011007B
:100A8000027822704278627000220D0004E0831820
:100A90009B78A618B370521C2B1F9A42F7DB2000DC
:100AA000FFF7AFFF6119891E0870000A487070BD1A
:100AB000017080211143417083700520704710B58B
:100AC000042901DA142010BD03780A4C6478A3428B
:100AD00001D0122010BD43189B1E5A781C781202B8
:100AE0001443FFF78EFFA04201D0112010BD00205B
:100AF00010BD000058020020FFFF000001A0000010
:100B00006D4841688022D2010A4342600168802218
:100B100092020A4302609020C0050168674A0A40B9
:100B200002600168664A0A4002600168654A0A403C
:100B300002600168802212030A4302600168802279
:100B400092030A43026001688022D2030A430260D2
:100B500041685D4A0A40426041685C4A0A4042601E
:100B600041685B4A0A404260416AF0229143416217
:100B7000416A584A0A404262416A10220A4342626C
:100B8000416A802252000A43426253480168534A34
:100B90000A4002600168524A0A4002604168514AB4
:100BA0000A4042605049C160016801220A43026064
:100BB000016808220A430260016804220A430260B5
:100BC000016820220A43026048490A6880231B0505
:100BD00013430B604168802212040A43426001689B
:100BE0008022D2040A4302604169090F09072322C7
:100BF0000A43426100203E49087070473D48C17871
:100C000000290DD101700121C1703B48016880228B
:100C100012010A4302603048016880220A430260E0
:100C2000704730B535488021890041182A4A202371
:100C3000D4691C400AD01468234007D0938C4C78A8
:100C40000419950D63554B785B1C4B70D30CD4691C
:100C50001C4007D05468240204D5146A234313624D
:100C600001238B7040238024D569254012D015685C
:100C70002C400FD00C780D79AC4204D2005D108569
:100C8000641C0C7006E010688024A043106010689B
:100C900018431060D06918400DD0106803400AD086
:100CA000106840239843106013480268084B1340B3
:100CB00003600020C87030BD14100240FFFFF3FF36
:100CC000FFFFCFFFFFFF3FFFFFFDFFFFFFFBFFFF2A
:100CD000FFF7FFFFFFF0FFFF00380140FFEFFFFFCE
:100CE000FFFFFFEFFFCFFFFF4103000000E100E047
:100CF0001202002010020020140000481000002002
:100D0000FFB500220F2302932DE0052403E0624C7F
:100D1000A042FAD104246D462D78AC403443019DA5
:100D20002C605E4CA568DC4325404E68F60200D579
:100D30001D435A4EB560F56825404F68BF0200D587
:100D40001D43F560756825404F68BF0300D51D43FE
:100D5000756035682C404D68ED0302D525001C00F8
:100D60002C433460521C0B681C00D44000D191E02D
:100D7000012595402B40F5D054000326A640F743AB
:100D800001974E68B707BF0F012F03D0B607B60F04
:100D9000022E0ED18668019F3740CE68A6403E43A2
:100DA00086604668AE434D68EF06FF0F97403743B5
:100DB000476095006E4675700D79AD07AD0F032D38
:100DC00026D0C568019E2E408D68A5403543C5607C
:100DD0000D79AD07AD0F022D1AD1D508AD0045191B
:100DE0002E6A03966E4676781C2737406E4637701B
:100DF000039EB446029F6E463678B7406646BE43B1
:100E0000B4460F696E463678B740664637432F6260
:100E100007680325019E3E404F682F40A740374397
:100E200007604C682E0426409CD001241C4E366876
:100E300026431B4F3E603E46366826400196019E83
:100E4000184E9708BF00F6190196019E3668039662
:100E50006E4676780C2737406E463770039EB44650
:100E6000029F6E463678B7406646BE439027FF0520
:100E7000B84201D100244EE70B4FB842FBD00B4CD7
:100E8000A04201D1022446E7094CA04200D03EE72F
:100E9000032440E7FFBD00000010004800040140AB
:100EA00018100240080001400004004800080048F3
:100EB000000C004880B500F043F800F015F800F091
:100EC0004FF8FFF799FDFFF71BFEFFF767FC05489A
:100ED000016820220A430260FFF7B7FCFFF735FDE7
:100EE000FAE700001400004818B591B0342104A8B6
:100EF000FFF77AFD684600210022002300241EC06F
:100F00000220049001200790102008900D9404A85E
:100F1000FFF7D6F8002801D000F00FF80720009066
:100F200001940294039400216846FFF7D9FA00283F
:100F300001D000F002F812B010BD72B6FEE7FEE775
:100F400080B50648016810220A4302600320FFF7BB
:100F50009FFB00F039F8002002BD00000020024095
:100F600080B586B01421002201A8FFF73FFD802044
:100F7000C00313490A6802430A600A6810400090DF
:100F800000988020C0020A6802430A60096808408D
:100F900000900098F02001908420800302900120AE
:100FA000039001A90748FFF7ABFE002200210720AC
:100FB000FFF7C9FB0720FFF7CAFB07B000BD00BF62
:100FC000141002400004004881B0012009490A6859
:100FD00002430A600A681040009000988020400593
:100FE0004A6802434A60496808400090009801B08E
:100FF000704700BF18100240FEE7FEE770477047D9
:10100000704710B501200A4980220A4B1C68144021
:1010100004D01A600A78012454400C7040221C68E5
:10102000144003D01A604A785040487010BD000048
:10103000600200201404014080B5FFF7F2FD01BDFD
:1010400070B40121002213E00368001D0B4202D09E
:101050004D46EB185B1E1A601B1D241F042CFAD290
:101060001D00A60701D51A80AD1C0C4000D02A70C7
:101070000468001D002CE7D170BC704730B401211A
:101080000EE00368C318446808300C4202D04D4695
:101090002C19641E1D6825601B1D241D121FF9D10B
:1010A0000268001D002AECD130BC704710B507491A
:1010B00079441831064C7C44163404E0081D0A6853
:1010C000891888470100A142F8D110BD080000002E
:1010D000280000006DFFFFFF5802000010000020F4
:1010E0000000000099FFFFFF1000000098000000C2
:1010F000000000200000000000F00DF8002801D0E2
:10110000FFF7D4FF00BF00BF002000BF00BFFFF704
:10111000D1FE00F002F80120704780B500F002F81F
:1011200001BDFEE70746384600F002F8FBE7FEE7A0
:1011300080B500BF00BF024A11001820ABBEFBE71C
:10114000260002000548014603B4684680F309887A
:1011500000BF00BF00BF00BFFFF7CEFFA5EDF5FE4B
:1011600070470000000000000000000001020304BE
:101170000607080901488047014800476111000837
:1011800045110008010000000000000004000000FC
:1011900000127A00FEE7FEE7FEE7FEE7FEE7FEE765
:1011A000FEE7FEE7FEE7FEE7FEE7FEE7FEE7FEE717
:1011B000FEE7FEE7FEE7FEE7FEE7FEE7FEE7FEE707
:0611C000FEE7FEE7FEE77A
:040000050800114599
:00000001FF
