:020000040800F2
:10000000500C0020BD4F0008494D00084B4D000822
:1000100000000000000000000000000000000000E0
:100020000000000000000000000000004D4D00082E
:1000300000000000000000004F4D0008514D000876
:10004000D7220008272300083B2F0008C33E0008E2
:100050004B3F0008A33F00080B410008594D000822
:100060002F450008C3450008C7450008954D000806
:100070000B4F00087F4F00088B4F0008CD4F000842
:10008000CF4F0008D14F0008D34F0008D54F0008CC
:10009000D74F0008D94F0008DB4F0008DD4F00089C
:1000A0009F4D0008DF4F0008E14F0008CD4D0008CC
:1000B000E34F0008E54F0008E74F0008E94F00084C
:1000C00070B5040001D1012070BD25004035002627
:1000D0006878002803D12E70200001F0EAF924206E
:1000E0006870206801680122914301606068794965
:1000F000014020680161216877488A6802408A606F
:10010000E1680129A16801D1C24301E08422120201
:100110000A4321688A60E168022921684A6803D19C
:1001200080231B01134301E06C4B13404B6021689B
:100130004A686B4B13434B602168CA681040C86023
:10014000206961690143A069000208432168C86011
:10015000E069216A0143206801602068016801228A
:100160000A4302606E60202068702663AE70002033
:1001700070BDFEB504000F0016001D004030407831
:10018000202800D0A2E04020205C012800D19DE082
:1001900001204021605401F0E7F9019000901923FB
:1001A0000122D103200000F0AFFF00284BD1212015
:1001B000210040314870102021004031887000201B
:1001C0002100403148606662658560634548089E4D
:1001D000618DFF2904D9FF21218580235B0405E07F
:1001E000618D218580239B04002915D0616A0978DF
:1001F00022689162616A491C6162618D491E618554
:10020000228D521E22850090521CD2B2390020004D
:1002100001F090F8019D0DE000900022F6E7FF202C
:1002200020850020009080235B04FF2239002000FD
:1002300001F080F8608D00282ED02A0031002000C7
:1002400000F0A0FF00283FD1606A00782168886232
:10025000606A401C60622448618D09186185218DA7
:1002600008182085618D0029E4D00004E2D10095B2
:10027000330000228021200000F046FF002823D117
:10028000608DFF28CBD8608D2085002000908023D2
:100290009B04228DD2B2C9E731002A00200000F071
:1002A000A1FF01000ED120202268D061226853688E
:1002B0000E4D1D405560220040325070002000233A
:1002C00093701070080002D00120FEBD0220FEBD18
:1002D00000000000FFFFFFF0FF7FFFFFFFF7FFFFC1
:1002E0000080000200200080FFFF000000E800FE08
:1002F000F2B582B00500002400202E00403671784F
:10030000202900D084E029688F693F0400D57FE070
:100310004027EF5D012F7BD00127377021277770B1
:100320001027B77074606A626B853A4AEA623C4A89
:100330006A637B056A8DFF2A04D9FF202885580847
:10034000019005E06A8D2A8501932A8D002A4ED0FE
:10035000686A00788862686A401C6862298D0800B3
:10036000304A6F8DBF186F858918298509043ED0E2
:10037000A86B202700282BD02B4981622B48A96B22
:100380000863A86BC462A86B44632B8D2A6828326B
:10039000696AA86B01F016F900281ED11F48009069
:1003A000019B2A8D521CD2B268460189280000F0B8
:1003B000C1FF688D298D401A68853470102128008E
:1003C00000F0CBFF286801687A020A4302601DE052
:1003D0007770B0707068802104E077700020B07092
:1003E000706810210143716034700120FEBD0A491C
:1003F00069630A490091C2B268460189280000F089
:1004000099FF34700121280000F0A7FF0020FEBDF5
:100410000220FEBD0000FFFF9F04000800200080B6
:1004200019070008FFFF000067100008D51000083A
:10043000026891691268436B002B00D1704780B548
:10044000984701BDF8B501688A690B461B6880248E
:1004500065002A4206D0234204D0466C0127374368
:100460004764CD61E1000A4207D0234205D0456CC4
:1004700008262E4346640568E96149080A4007D00A
:100480001C4005D0426C0223134343640268D161CF
:10049000416C0B220A4001D000F03CFDF1BDFEB5DD
:1004A00004000D004020205C012801D10220FEBD87
:1004B00001204023E0540421102301921D420ED05C
:1004C0001A400CD02068C3612000403040680143CE
:1004D000200040304160200000F0B7FD76E0414A46
:1004E0000D4209D0019B194006D0042085432068A5
:1004F000406A616A08700DE042212940022913D147
:100500000199890710D5608D00285FD0606A007856
:1005100021688862606A401C6062208D8018208596
:10052000608D8018608551E04021019A0A404306A1
:100530002D4E2F062ED5002A2CD0618D002924D0D7
:10054000218D002921D1226851688905890D678D87
:10055000FF2F09D99269D20300D4FF202085002003
:1005600000905B08228D0BE0608D20850246E06ADA
:10057000B04203D000200090E36A01E00020009028
:10058000D2B2200000F0D6FE20E020684068034090
:1005900018D113E0294019D0002A17D0608D002807
:1005A00010D1206841680B4010D1E16AB14205D1F9
:1005B00041688022D2010A43426007E0200000F037
:1005C000D2FA03E04021200000F0A4FC20200542E4
:1005D00006D00199084003D02900200000F01CFB40
:1005E0002CE10000FFFF00000000FFFFF8B5040051
:1005F000E06A4023E35C012B01D10220F2BD01231C
:10060000402563552023194205D0134003D0200014
:1006100000F070FB7BE0AB0404258A4E10273942C2
:1006200034D03A4232D0628D002A1BD122004032AF
:100630005278282A06D15A00904203D1200000F0B7
:1006400033FC64E0210040314978292907D1B042C8
:1006500005D02068C761200000F0F7FC54E0206856
:10066000C76154E02168CF612100403149680D43E2
:10067000210040314D60002801D0984247D1200030
:1006800040304168200000F045FC40E0F74329423B
:1006900017D0154015D0618D00290CD02168496A0A
:1006A000626A1170616A491C6162218DC9192185D4
:1006B000618DC9196185618D002928D1B04226D08C
:1006C00022E00825294205D0154003D0200000F083
:1006D000FDF91CE00225294019D0154017D0618D85
:1006E00000290DD0606A007821688862606A401C29
:1006F0006062608DC0196085208DC019208506E07C
:10070000984201D0002802D1200000F050FA0020C9
:1007100040216054F2BD0000FEB504004020205C82
:10072000012801D10220FEBD009101204023E054A8
:1007300010210192009A0A4014D0019A0A4011D067
:100740002068C1612000403040680421014320003E
:10075000403041602021200000F0FFFD200000F02B
:1007600074FC6BE04021019E0E4085034306354A30
:10077000009F3F063BD5002E39D0216809684026EE
:10078000B143266831602668618D00292BD07168DD
:100790008905890D678DFF2F06D9B269D20300D470
:1007A000FF2020855B0805E0608D2085E06A90428F
:1007B00000D0E36A00200090228DD2B2200000F029
:1007C000B9FD608D218D401A60852068210040317F
:1007D00049782229016803D16A000A4302602DE0AA
:1007E0000D4305602AE07068034017D112E00098BD
:1007F000014018D0002E16D0608D00280ED1206840
:1008000041680B401AD1E16A914203D141680D431E
:10081000456013E0200000F0A6F90FE04021200021
:1008200000F078FB0AE020200099014006D00199F1
:10083000084003D00099200000F0EEF9002040218C
:100840006054FEBD0000FFFFFEB504009E4F402037
:10085000205C012801D10220FEBD0091012540212C
:10086000655410200099014013D0024211D0216834
:10087000C86120004030406804210143200040301E
:1008800041602021200000F068FD200000F0DDFB29
:1008900087E00220009901400CD010400AD02000CF
:1008A00040300069216888620020C0432100403147
:1008B000086176E04020402111400191FF26009917
:1008C000090626D50199002923D00121200000F036
:1008D00097FD1021200000F040FD608D002813D00E
:1008E000608DFF280AD920688069C00301D525855D
:1008F00000E02685002000902B062FE0608D2085EB
:10090000002000906B0629E04021200000F002FB4F
:1009100047E0009908403BD00198002838D00121D9
:10092000200000F06DFD1021200000F016FD2000D9
:1009300040304078222800D1B64F608DFF2809D979
:1009400020688069C00301D5258500E026850097D1
:100950002B0603E0608D208500976B06228DD2B2B6
:1009600020004030C16889B2200000F0E3FC608DB7
:10097000218D401A60852068210040314978222964
:10098000016801D1EA0300E0AA030A43026008E01B
:100990002020014005D0104003D00099200000F035
:1009A0003BF94BE7FEB504000B001000E16A00259F
:1009B00000224026A65D012E01D10220FEBD00933B
:1009C00001234027E3552026009F374006D00640EC
:1009D00004D00099200000F08DF970E01026009FEF
:1009E000374062D0304260D0C0273F02074059D024
:1009F000E76B0197002F07D0070405D5019F3F68DB
:100A00007F68002F00D10122A36B002B05D040048A
:100A100003D518684068002801D0002A1DD02000A6
:100A200040304078282807D17005814204D10099D0
:100A3000200000F039FA42E02000403040782928B8
:100A400030D1AB4881422DD02068C661200000F033
:100A5000FCFA200000F0ABF831E02068C66120000D
:100A600040304068042202432000403042602000B1
:100A700040304078002902D0320591421FD1212810
:100A800001D0292801D1212004E0222801D02A28E0
:100A900001D122202063200040304168200000F076
:100AA00039FA0CE02068C66109E00821009A0A4082
:100AB00005D0014003D00099200000F007F8402045
:100AC00025540020FEBD000000200080FEB5060079
:100AD00034004034306800250822617828230B4018
:100AE000282B3DD18169C903CB0F69460B70816901
:100AF000090CFE270F4081688905890D6B465980D6
:100B0000C168FE230B4069468B801103F368022BFA
:100B10001BD106231F40BC466F467F88FF093B4020
:100B20009C450BD1A168491CA160A168022919D17B
:100B3000A560C2612570684642880CE0300000F074
:100B40005FFC25706846828805E0300000F058FCA4
:100B500025703A0068460178300000F015FEF7BDB8
:100B6000C2612570F7BD70B504002600403600252F
:100B70000020B07020207178212970700BD11120D5
:100B8000206365630121200000F03AFC35702000ED
:100B900000F000FE70BD122020636563022120007A
:100BA00000F02EFC3570200001F08AF970BD70B5A0
:100BB0000400206801682600403600250022B2703B
:100BC0004A0402D50168B64A03E0090403D5016866
:100BD000B44A0A4002602820717829290BD170702C
:100BE000212020630121200000F00AFC3570200044
:100BF00001F067F970BD71782A290AD1707022203E
:100C000020630221200000F0FBFB3570200001F082
:100C100059F970BD00240080F8B504000E002027AB
:100C20002068C761250040356878212805D1012159
:100C3000200000F0E5FB112007E06878222805D1AC
:100C40000221200000F0DCFB12202063300021682C
:100C50004A68AD4B13404B60002666632449E1624D
:100C600010210422084204D02368D9616968114325
:100C700069606978602906D1024004D02068406A22
:100C8000C0B200900098200000F0DFF96868697831
:100C9000602901D0002804D06968200000F03AF9EA
:100CA000F1BD687821280FD16F702663A87840289D
:100CB0003046A8702E7003D1200001F004F9F1BD78
:100CC000200000F067FDF1BD687822280ED16F701A
:100CD0002663A87840283046A8702E7003D12000E3
:100CE00001F0F2F8F1BD200001F0EAF8F1BD0000DA
:100CF0000000FFFFFEB5040020680068029000912C
:100D0000E06A019025004035687820272168CF618E
:100D10000026212801D0292805D17C49200000F097
:100D20006FFB212008E0222801D02A2806D178492B
:100D3000200000F065FB2220206306E0282804D173
:100D4000B449200000F05CFB266320684168BA02C9
:100D50000A434260206841686B4A0A4042602000B2
:100D600000F073F90298400406D5206801684C4AE7
:100D70000A400260A06B08E0029800040AD52068CF
:100D80000168484A0A400260E06B002802D000680F
:100D90004068608504200099014012D00099814389
:100DA00000912168496A626A1170616A491C616236
:100DB000218D002905D0984A89182185618D8918CF
:100DC0006185618D002902D0696801436960102145
:100DD000009A0A4033D0029A0A4030D0628D002A2D
:100DE0001ED16878282808D101984A05904204D17C
:100DF0000099200000F058F821E0687829280CD1EB
:100E00000198AA4A904208D02068C161200000F0F1
:100E10001CF92000FFF7CBFE11E02068C1610EE055
:100E20002268D1616968084368600198002802D08F
:100E3000F904884203D16968200000F06BF80020B3
:100E4000A8706663686800280BD06968200000F00D
:100E500061F86878282821D10099200000F024F852
:100E6000F7BDE06A914988420BD02000FFF79FFE52
:100E70008E48E0626F7026632E70200001F025F826
:100E8000F7BD687822286F7026632E7003D120008A
:100E900001F018F8F7BD200001F013F8F7BD0000CD
:100EA000FFBFFFFFFF7FFFFF70B504007F48E062D8
:100EB0000025256326004036202070700020B07089
:100EC00065630420014012D02168496A626A11708A
:100ED000616A491C6162218D002908D04E4A891837
:100EE0002185618D89186185716808437060494961
:100EF000200000F085FA10202168C86135702000BC
:100F000000F0E3FF70BD000000E800FE018000007B
:100F100002800000F8B504002700403778780025EB
:100F20000022BA70614AE262002262857A68114347
:100F30007960282803D0292801D02A2808D1032144
:100F4000200000F05DFA282078705E4860631CE0A5
:100F50003049200000F054FA200000F076F878784C
:100F6000602811D020202021797021688A690240F0
:100F70000AD010228B69134004D0CA617968042218
:100F80000A437A602168C8616563206B4E4EA16B8D
:100F900000291AD0112801D0212816D12068016813
:100FA000490403D50168494A0A400260A06B00F079
:100FB000C5FB012829D0A06B46633D70A06B00F0F3
:100FC00039FB002824D0A06B1CE0E16B00291CD069
:100FD000122801D0222818D120680168090403D5FD
:100FE00001683B4A0A400260E06B00F0A7FB012861
:100FF0000BD0E06B46633D70E06B00F01BFB0028FC
:1010000006D0E06B416B8847F1BD200000F006F888
:10101000F1BD000003800000FFFF000010B50100DB
:10102000303100224123C35C602B08D120234124AE
:1010300003550A604021425400F048FF10BD0A6089
:101040004021425400F043FF10BD006881698907C8
:1010500001D500218162012182690A4002D18269A1
:1010600011438161704710B5446A20680168174ACE
:101070000A400260608D002801D1202114E0606ADE
:10108000218D41186162608DFF2801D9FF2000E0A9
:10109000608D2085238D22682832A06B00F092FAA3
:1010A000002800D008E0402102E000000000FFFF1F
:1010B000200000F052F910BD10212000FFF72AFF98
:1010C00010BD0000ED050008ED100008FFBFFFFF98
:1010D000FF7FFFFF80B5406A01684A6880231B02DA
:1010E00013434B601021FFF715FF01BD80B5406A27
:1010F000816B0022002900D04A63C16B002900D017
:101100004A63FFF78BFF01BDF8B50092002405008C
:101110000F001E00286880693840B84201D10120C4
:1011200000E00020009988422AD1069A3100280068
:1011300000F082F8002812D10020C0438642E9D096
:1011400000F012FA0699401A864201D3002EE1D12E
:10115000286880693840B84203D1012002E00120AC
:10116000F2BD002000998842D4D1280040302021CF
:1011700042680A4342604170002181700470EEE7CA
:101180000020F2BDF8B5022604000D00170020680B
:101190008069304024D13A002900200000F04CF84A
:1011A000002804D10020C0438542F0D001E0012096
:1011B000F2BD00F0D9F9C01B854201D3002DE6D164
:1011C000206880693040E2D1200040302021426810
:1011D0000A43426041700021002282700170E6E7FC
:1011E0000020F2BDF8B5202504000E00170020688D
:1011F000806928401ED13A003100200000F01CF820
:10120000002801D00120F2BD00F0AEF9C01B8642DB
:1012100001D3002EEBD1206880692840E7D120005F
:1012200040304168294341604570002100228270AE
:101230000170E7E70020F2BDFEB50600002430682B
:101240008369002517001022134040D0C26100912D
:1012500031E0210033D100980021C94388422AD0CF
:1012600000F082F9C01B0099814201D3002922D1EC
:101270003068416832004032927883691B040BD594
:101280008023DB01194007D1202A05D041680B4398
:10129000436000F069F90700019620260198006874
:1012A0008069304006D100F05FF9C01B1A28F5D3E1
:1012B00020250124019E306881698906C9D5002C4A
:1012C00001D12021C1612800042505430124306893
:1012D000816901231A02114202D01D43C261012417
:1012E0009000014205D02A00082515433268D061DC
:1012F00001244008014006D0290002250D43316831
:10130000C861012401E0200012D03000FFF79DFEEB
:1013100030684168354A0A404260300040304168D8
:101320000D43456020214170002100228270017030
:101330002000FEBDF0B5059C00684568660D2C4F89
:101340003743BD438905890D12040A4313431C43E7
:101350006100490829434160F0BDF1B581B000202A
:10136000019A526B009202229503009E214FBE42C9
:1013700019D0214FBE4216D0204FBE4213D0294271
:1013800000D0B820CC0702D50400F220204311423F
:1013900002D00200F4201043102913D020291ED1BE
:1013A000010020201AE0294200D0B820CC0702D545
:1013B0000400F2202043114202D00200F420104326
:1013C000102902D10100902008E0202902D101005B
:1013D000602003E0402902D1010040200843019928
:1013E00009680A6810430860F3BD000000E800FEC9
:1013F000FF63FF0319070008A50900084908000852
:1014000010B500222823CC0706D542224124045DD2
:101410001C40282C00D0F2228C070AD5140044224C
:1014200022434124045D2340282B02D01300B02224
:101430001A430B0402D51300B8221A43102902D113
:101440001100902208E0202902D11100202203E09F
:10145000402902D1110040220A43006801689143EB
:10146000016010BD10B5394C3948206039486060C2
:101470000020A0600121E16020616061A061E06165
:1014800020622000FEF71CFE002801D000F07DFD48
:101490000021200000F07CFD002801D000F075FD47
:1014A0000021200000F091FD002801D000F06DFD2A
:1014B00010BD70B586B006001421002201A800F00E
:1014C000AFFD3068224988423ED18020C002224CC4
:1014D0002168014321602168084000900098C020E5
:1014E0000001019012200290002503950320049032
:1014F0000120059001A9194800F098FD8020C00343
:10150000A1680143A160A168084000900098144CB4
:101510001448206010206060A5608020E060256194
:101520006561A561E561200000F024F8002801D084
:1015300000F02BFDB463666200220021182000F049
:1015400072FE182000F073FE06B070BD8007002008
:10155000005800400B020000141002400004004834
:10156000D40700204400024001484068704700BF93
:10157000A800002010B5040001D1012010BD0220F8
:1015800021216054206801680D4A0A4061681143B6
:10159000A2680A43E168114322690A436169114361
:1015A000A2690A43E16911430160200000F0DAF802
:1015B0000020A06301212122A1542021605410BDEC
:1015C0000FC0FFFFF2B50400002000252021615C60
:1015D000012901D10220F2BD01262027E655022172
:1015E0002127E75D012F20D12127E155A063206845
:1015F0000168B14301600099200000F0A2F8206862
:10160000E16A0029016803D00E220A43026007E064
:101610000A220A43026020680168042291430160A3
:10162000206801680E43066002E02022A0540225D3
:101630002800F2BD70B50021002401222123C35CE3
:10164000022B03D004218163012415E003681D6887
:101650000E26B5431D6003681D6895431D60036C2D
:1016600001259D40C36B5D602123C254202281541B
:10167000416B002900D08847200070BDFEB5C16BCA
:101680000968019101680A68009220220423019CE4
:10169000056C0426AE40264011D0009C1C400ED0A4
:1016A0000C68224002D10A689A430A60016C8B40A0
:1016B000C16B4B60C16A00293FD08847F7BD012349
:1016C00002240025019EB446066C0227B7406646F8
:1016D000374016D0009E264013D00E68324005D108
:1016E0000A680A26B2430A6021214354016C8C40E7
:1016F000C16B4C6020214554816A00291DD0884768
:10170000F7BD08226446066C0827B740274014D06E
:10171000009C224011D00A680E24A2430A60016C8A
:1017200001228A40C16B4A608363212143542021F6
:101730004554016B002900D08847F7BD2121405C4A
:10174000704730B50124056CAC40C56B6C60046813
:1017500063604068102802D1A260E16030BDA160E2
:10176000E26030BD10B5040020680549401814211E
:1017700000F096FD800020640248E06310BD000088
:10178000F8FFFDBF0000024070470268531C036071
:101790001170704700688A49884202D10120894946
:1017A0000870704788488021017081700222C270E1
:1017B00001711021417140218171704780B5052070
:1017C00000901023814A78218148FEF7D2FCFFF770
:1017D000E9FF01BD80B57C4BB02202435A708022E4
:1017E0007C49C0010918D81D00F090FD01BD38B535
:1017F000744C2078002814D06078002811D000257F
:1018000025706068FFF7E6FF87236F4A78217048EC
:10181000FEF76EFD6068401C082801DB0020657043
:10182000606031BD67480021416001214170017055
:10183000704780B58021C900664800F0EFFB01BD0C
:10184000802800DB704710B5402910DA614CCB08C6
:10185000DB01C0182018037801244907490F8C4088
:10186000012A02D11C43047010BDA343037010BDB4
:10187000FEB59C4B1B896C4663806B465B880C787D
:101880001B19802B09DA974B5B896C46A3806B464A
:101890009B884C781B19402B01DB0020FEBD0027E4
:1018A0006B461870150001E002997F1C487887424A
:1018B00023D24A686B461B78203B4343D81940002B
:1018C000165A0024029103E06A1E9241D20F0EE0E4
:1018D000029800788442E7D2684640880019694639
:1018E0008988C9193200A2401204EDD52A0089B2B4
:1018F00080B2FFF7A5FF641CEAE7684640880978D4
:1019000040187849088168460078FEBD70B504002B
:101910000E00150000E0641C2078002807D02A0083
:101920003100FFF7A5FF21788842F4D0084670BD4A
:10193000F8B500246B4D07000E0005E03200698900
:1019400080B2FFF77DFF641CA0B2B84204D22889A0
:10195000001981B28029F1DBF1BDF8B507006148BB
:10196000068945893A0029003000FFF769FF002405
:10197000E4433A00691C89B2301980B2FFF760FF76
:10198000641C012CF5DD0124E4433A00A91C89B252
:10199000301980B2FFF754FF641C022CF5DDF1BD55
:1019A00010B500F0E9F94F4C2078002807D0E06826
:1019B00040688047E06800688047FFF733FF10BD4C
:1019C0000058004040080020F80600209000002049
:1019D00080070020F000002038B5424CE0686178B4
:1019E000FC232578012D09D035D3032D0CD002D34B
:1019F000042D2ED02FE0CA1CC91C01E04A1C491C32
:101A00001340C91A617026E0002905D002290DD0C3
:101A100005D3032914D01EE0200068301BE000F03D
:101A2000EDF8002809D12000783014E000F0E6F845
:101A3000002802D1200080300DE0200070300AE044
:101A4000BFF34F8FA648B9490860BFF34F8F00BF5F
:101A5000FDE72000583000212170E06031BD00001A
:101A6000F8B5FFF7E6FE0A271E4C278100256581A1
:101A7000AF4E0122310000BF1BA0FFF747FF2781B7
:101A80000F206081012231001AA0FFF73FFF27815C
:101A90001E2060810122310018A0FFF737FF278147
:101AA0002D2767810122310016A0FFF72FFFB1A07B
:101AB0006178002905D0022909D005D303290AD06D
:101AC000F1BD2581658108E025810F2101E0258197
:101AD0001E21618101E02581678101223100FFF72C
:101AE00015FFF1BD0800002050617373776F7264B9
:101AF0000000000041646472657373005370656593
:101B0000640000005265736574000000F0B5894CF4
:101B1000A578E6782078012E1AD1F822012806D07F
:101B20002DD303280DD005D304280CD027E0691C41
:101B30006D1C01E0E91DED1D002040180240AD1AAA
:101B40001DE002261BE020006030E060002516E06A
:101B5000022E16D1A90067180A21401E05D0401E8A
:101B600006D0401E012809D909E03869401C01E06F
:101B70003869093000F080FB396100E0012600205F
:101B80002070E670A570F0BD3EB5FFF752FE00254F
:101B9000684C258165810122A34900BFA5A0FFF7FC
:101BA000B5FE25810F206081002069468200A218C1
:101BB000126930320A54401C0828F7DB0D729A4D26
:101BC000012229006846FFF7A1FEA178E0780228EB
:101BD00008D12878414321811A2161810121FFF731
:101BE000A7FE37BD012808D128784143C91C2181AF
:101BF000182060810120FFF7B0FE37BD00200021D2
:101C00008A4A0A2358438B00D3181B69C018491C01
:101C10000829F6DB002800D00120C0B27047000080
:101C200038B5FFF706FE434C042020810F20608169
:101C30007D4D0122290000BF81A0FFF767FE202013
:101C400020811E2060810122290000BF81A0FFF7B2
:101C50005DFE31BD75480178491E032902D8010097
:101C60006031C16000210170704710B56F4C207960
:101C700002000A2123785B1E05D05B1E05D05B1E87
:101C8000012B08D90CE0501C01E00932100000F0D3
:101C9000F3FA217104E021006031E16000F0C2FB41
:101CA0000020207010BD00007CB5FFF7C2FD214C64
:101CB0000025258165811E4E0122310068A0FFF7B5
:101CC00025FE25810F206081227959A1684600F008
:101CD000B3FB012231006846FFF718FE73BD000018
:101CE0000400FA0510B5514C206D0721C943227834
:101CF000521E07D0521E03D0521E012A0AD911E0EB
:101D0000C01D00E0401C8210520F12181140401AF2
:101D1000206507E021006031E16080002018006B41
:101D200000F086FC0020207010BD00000CED00E0EB
:101D300000000020080000207FB5FFF77AFD3B4C33
:101D4000002525816581384E0122310047A0FFF72B
:101D5000DDFD25810F206081206D80002018026B41
:101D600033A1684600F068FB012231006846FFF7A6
:101D7000CDFD7FBD3E00000010B52C4C60790028E1
:101D800004D1FFF7F1FB606501206071FFF7ECFB08
:101D9000616D401AFA21C90088420BD3607902288C
:101DA00008D020005830E060A06D8047FFF73AFD72
:101DB0000220607110BD704770B5FFF73AFD0A252B
:101DC0001A4C258100206081174E0122310000BF8E
:101DD0002AA0FFF79BFD25810F20608101223100A1
:101DE0002AA0FFF793FD25811E206081012231008A
:101DF0002AA0FFF78BFD70BD80B5FFF71AFD0B48D9
:101E00000A210181002141810122074927A0FFF712
:101E10007DFD01BD05480178032902D10100603133
:101E2000C160002101707047000000200800002000
:101E30002564000050617373776F72643A0000008C
:101E4000456E7465722074686520636F7272656395
:101E50007400000050415353574F5244210000007A
:101E6000416464726573733A0000000053706565E5
:101E7000642028627073293A000000004E616D658D
:101E800020436F6D70616E790000000048617264DC
:101E9000776172653A2076312E300000536F667498
:101EA000776172653A2076312E300000536F6D6590
:101EB00020496E666F726D6174696F6E000000007C
:101EC000704770477047704770477047704770475A
:101ED00080B500F0DDFB00F02FF800F0E9FB00F02A
:101EE0002BFCFFF7BFFA00F01FFA00F0C5FA00F074
:101EF00039FC0D48016820220A430260002280213B
:101F000049010A4800F05DF9FFF758FC0848094903
:101F1000086000688047FFF785FCFFF768FCFFF763
:101F20003FFD00F0D9FCF8E7140000480004004829
:101F3000A00000201400002018B591B0342104A89E
:101F400000F06CF8684600210022002300241EC027
:101F50000220049001200790102008900D9404A8FE
:101F600000F008FD002801D000F00FF807200090D5
:101F70000194029403940021684600F00BFF0028AE
:101F800001D000F002F812B010BD72B6FEE72E00CC
:101F900070B5020040325378202B14D14023C35C2B
:101FA000012B10D001231370242454700468256879
:101FB0009D43256004682568164E2E4026600468FF
:101FC000256829431CE0022070BD70B50200403234
:101FD0005378202B12D14023C35C012B0ED0012358
:101FE000137024245470046825689D432560046898
:101FF0002568094E2E400902314301E0022070BDE0
:102000002160006801680B430360202050700020AD
:10201000107070BDFFEFFFFFFFF0FFFF002200BF59
:10202000094202D0491E4254FCD17047FFB500223C
:102030000F2302932DE0052403E0654CA042FAD162
:1020400004246D462D78AC403443019D2C60614CD6
:10205000A568DC4325404E68F60200D51D435D4E61
:10206000B560F56825404F68BF0200D51D43F56097
:10207000756825404F68BF0300D51D4375603568FE
:102080002C404D68ED0302D525001C002C43346024
:10209000521C0B681C00D44000D191E001259540F2
:1020A0002B40F5D054000326A640F74301974E6815
:1020B000B707BF0F012F03D0B607B60F022E0ED100
:1020C0008668019F3740CE68A6403E4386604668DA
:1020D000AE434D68EF06FF0F9740374347609500CA
:1020E0006E4675700D79AD07AD0F032D26D0C5680E
:1020F000019E2E408D68A5403543C5600D79AD0722
:10210000AD0F022D1AD1D508AD0045192E6A0396E0
:102110006E4676781C2737406E463770039EB4466D
:10212000029F6E463678B7406646BE43B4460F6996
:102130006E463678B740664637432F6207680325F8
:10214000019E3E404F682F40A740374307604C68D0
:102150002E0426409CD001241F4E366826431E4F75
:102160003E603E46366826400196019E1B4E97080B
:10217000BF00F6190196019E366803966E46767882
:102180000C2737406E463770039EB446029F6E465A
:102190003678B7406646BE439027FF05B84201D166
:1021A00000244EE70E4FB842FBD00E4CA04201D1A6
:1021B000022446E70C4CA04200D03EE7032440E74F
:1021C000FFBD002A01D08161704781627047000025
:1021D00000100048000401401810024008000140AF
:1021E0000004004800080048000C004810B5C30077
:1021F00018221A40FF249440E3438907090E9140B6
:10220000020004D4184892089200801806E0174A89
:102210000007000F0838800880001018026813407B
:102220001943016010BD80B5FFF7E0FF01BD01005B
:1022300005D40121C006C00E81400D4801607047E1
:1022400010B5401E80214904884201D3012010BDF1
:10225000084C606003210020C043FFF7C7FF002047
:10226000A0600721216010BD00E400E01CED00E04B
:1022700000E100E010E000E0CA0F00D04942031086
:102280005A400DD004B500D3404200F009F8009A3E
:10229000D20701D34942124200D5404204BD00009A
:1022A000094214D088420FD30122030C01D100044B
:1022B0001204002300185B418B4200D35B1A524189
:1022C000F8D319001000704701000020704708B5CE
:1022D00000F032FE08BDFEE770B4103A03D378C9AF
:1022E000103A78C0FBD2530701D318C918C001D5E2
:1022F00008C908C0D20704D30B880380891C801C3E
:10230000002A01D50B78037070BC70478B0701D190
:102310008307E1D0124205D00B78491C0370401CA2
:10232000521EF9D17047FEE740480021417001215B
:102330000170704730B502003D48002302E02000E4
:102340000CE05B1C8C1EA3420BDA14786040521C1C
:1023500008254408C007F2D5364860406D1EF8D104
:10236000EFE730BD70B505000C001600310020000D
:1023700000F03EF8010018D120782870607868706D
:10238000A0780002E1780843688020790002617932
:102390000843A880002004E0211889792A18917147
:1023A000401CB11F8842F7DB002070BD70B50C00E7
:1023B0001100027822704278627000220D0004E061
:1023C00083189B78A618B370521C2B1F9A42F7DB18
:1023D0002000FFF7AFFF6119891E0870000A4870DE
:1023E00070BD0170802111434170837005207047DA
:1023F00010B5042901DA142010BD03780B4C647861
:10240000A34201D0122010BD43189B1E5A781C789D
:1024100012021443FFF78EFFA04201D0112010BD1D
:10242000002010BD014948707047000038080020A6
:10243000FFFF000001A000000CB418B583B0040039
:102440000A0006A8029001940020009002AB01A9A6
:10245000084878441E3000F075FD0021019A117083
:10246000002801D40198001B04B0019910BC03B0EE
:10247000084700BF17F3FFFF714841688022D2016F
:102480000A4342600168802292020A43026090205F
:10249000C00501686B4A0A40026001686A4A0A4046
:1024A00002600168694A0A400260016880221203E2
:1024B0000A4302600168802292030A4302600168B5
:1024C0008022D2030A4302604168614A0A404260A6
:1024D0004168604A0A40426041685F4A0A4042607F
:1024E000416AF02291434162416A5C4A0A40426279
:1024F000416A10220A434262416A802252000A4322
:10250000426257480168574A0A4002600168564AC9
:102510000A4002604168554A0A4042605449C1601D
:10252000016801220A430260016808220A4302602E
:10253000016804220A430260016820220A43026003
:102540004C490A6880231B0513430B6041688022B5
:1025500012040A43426001688022D2040A430260E6
:102560004169090F090723220A43426100204249B9
:10257000087070474148C17800290DD101700121D0
:10258000C1703F480168802212010A43026034484A
:10259000016880220A430260704730B539488021C3
:1025A000890041182E4A2023D4691C400AD014689F
:1025B000234007D0938C4C780419950D63554B78C4
:1025C0005B1C4B70D30CD4691C4007D054682402A8
:1025D00004D5146A2343136201238B7040238024A3
:1025E000D569254012D015682C400FD00C780D7994
:1025F000AC4204D2005D1085641C0C7006E01068CB
:102600008024A0431060106818431060D0691840FF
:102610000DD0106803400AD0106840239843106022
:10262000174802680C4B134003600020C87030BD8F
:1026300000B501001448FFF733FE1449086000BDDF
:1026400014100240FFFFF3FFFFFFCFFFFFFF3FFF2C
:10265000FFFDFFFFFFFBFFFFFFF7FFFFFFF0FFFFA7
:1026600000380140FFEFFFFFFFFFFFEFFFCFFFFF4D
:102670004103000000E100E0F2060020F006002027
:1026800014000048F004002000127A000C380140C9
:1026900080B50648016810220A430260032001F059
:1026A00011FC01F031FC002002BD000000200240BE
:1026B00038B586B01421002201A8FFF7B1FC8020B4
:1026C000C0031B490A6802430A600A681040009070
:1026D00000988020C0020A6802430A600968084026
:1026E0000090009880246401124D002221002800EF
:1026F000FFF767FD019401240294002003900490E9
:1027000001A92800FFF792FCF020019084208003AB
:102710000290039401A92800FFF788FC0022002101
:102720000720FFF780FD0720FFF781FD07B030BDD0
:10273000141002400004004880B5012008490A68CE
:1027400002430A60096808400090009800220021B6
:102750000B20FFF768FD0B20FFF769FD01BD00BFEF
:102760001410024073480168802212030A43026079
:102770000168802292020A4302606F4801686F4A32
:102780000A40026001686E4A0A4002609021C90551
:102790000A68C0239A430A600A686A4B13400B60B8
:1027A0000A68694B13400B6002688023DB04134303
:1027B0000360026880235B05134303600A684023BB
:1027C00013430B600A6880235B0013430B600A68A5
:1027D0008023DB0013430B6042685C4B1340436073
:1027E00042685B4B1340436048680822904348604E
:1027F000486810229043486048682022904348600F
:10280000486902434A615348002101704170704792
:1028100052485349096801804F490968418070470F
:10282000F8B505000C006A786888A9884318102B51
:1028300001D302234BE000264A4B032A02D0102A80
:102840001FD043E05878207003206070A8884000B3
:102850000090FFF7DDFF0098A07068880AE03F490C
:10286000821952008F5A71003A0A6318DA70221DD9
:102870005754761CA9888E42F1DB0098401DC0B2E7
:10288000F2BD5A78227010226270344A09E0730057
:10289000EB18DF793F021B7A1F4383195B00D75285
:1028A000761C8E42F3DB104601882D4A1160408869
:1028B000294908606888000AA0706888E070A888C4
:1028C000000A2071A88860710820F2BD01232978D0
:1028D0002000FFF786FDF2BD22480078012800D0D5
:1028E0007047F8B5FFB081B01F48407800281ED06F
:1028F0001D4E002474701D4F3278390040A8FFF738
:1029000031FD00280DD13278694640A8FFF788FFD5
:1029100005002A0016496846FFF748FDF570FFF7E5
:1029200029FE3470802149003800FFF777FB7FB023
:1029300002B0F0BD1410024000080048FFFFFFF392
:10294000FFFFFFCFFFFCFFFFFFF3FFFFFFDFFFFFF6
:10295000FFBFFFFF4C0800201408004818080020A3
:102960001400004838080020F1060020F00500207F
:10297000F0040020F8B504001AD0A04D2078C0075C
:1029800018D568680C21014004290CD068680C2116
:102990000140082949D16868C021490201408020CE
:1029A0004002814241D12868800303D56068002835
:1029B00000D1E4E1207880071FD5F827FF4368683D
:1029C0000C2101400CD068680C210140082963D11A
:1029D0006868C021490201408020000281425BD129
:1029E0002868800703D5E068012800D0C7E128687F
:1029F00007402069C00038432860207800077CD554
:102A00000227E0690028686A68D0012101436962F1
:102A1000FEF7AAFD0600686A38406ED1FEF7A4FDF5
:102A2000801B0228F7D90320F2BD6168012909D073
:102A3000B04800290CD005290AD128688021C90294
:102A4000014329602868802149020143296006E08A
:102A50002968A94A0A402A60296808402860802716
:102A6000BF02606800280BD0FEF77EFD06002868D4
:102A700038409FD1FEF778FD801B6528F7D3D2E759
:102A8000FEF772FD06002868384093D0FEF76CFD13
:102A9000801B6528F7D3C6E7E068002828680ED0B9
:102AA000012101432960FEF75FFD060028688007C9
:102AB0009DD4FEF759FD801B0228F7D9B3E7012109
:102AC00088432860FEF750FD06002868800794D5EB
:102AD000FEF74AFD801B0228F7D9A4E701218843AD
:102AE0006862FEF741FD0600686A384005D0FEF7CF
:102AF0003BFD801B0228F7D995E72078400761D578
:102B00000020009080204005E969014008D1E96972
:102B10000143E961E96908400090009801200090B4
:102B2000994F3868C0050FD43868A90D0143396042
:102B3000FEF71AFD06003868C00505D4FEF714FD3F
:102B4000801B6528F7D36EE7A068012809D000280C
:102B500001D1286A0AE00528286A07D10421014327
:102B60002962286A01210143296206E00121884384
:102B70002862286A0421884328620227A068002866
:102B80000CD0FEF7F1FC0600286A384013D1FEF79E
:102B9000EBFC801B7D498842F6D344E7FEF7E4FC5A
:102BA0000600286A384006D0FEF7DEFC801B774915
:102BB0008842F6D337E70098002803D0E8697449C3
:102BC0000140E9612078C00620D56069F826F64307
:102BD0000422012850D1686B02436A63686B0121AB
:102BE00001436963FEF7C0FC0700686B800707D4E8
:102BF000FEF7BAFCC01B0228F7D914E70010024008
:102C0000686B0640A069C000304368630C272078D9
:102C1000800614D5686838400C2809D068683840A8
:102C2000082843D1686879030140780381423DD187
:102C3000686B800303D5206A012800D09FE0606A9A
:102C4000002800D19DE069680F40082F00D181E085
:102C50008027BF049149022828686DD1014029606E
:102C6000FEF782FC06002868384047D0FEF77CFC5F
:102C7000801B0228F7D9D6E60421C9438842686B35
:102C800002D101406963BBE702436A63686B0121BB
:102C900088436863FEF768FC0600686B8007B5D55B
:102CA000FEF762FC801B0228F7D9BCE6206A0028E8
:102CB000686B0FD08021490201436963FEF754FC21
:102CC0000600686B8003BAD4FEF74EFC801B022816
:102CD000F7D9A8E6084901406963FEF745FC0600FC
:102CE000686B8003ABD5FEF73FFC801B0228F7D949
:102CF00099E600BFFFFFFBFFFFFFFEFFE86A0F2121
:102D00008843216B0143E962686879490140E06AC0
:102D10000843A16A01436960286879080143296072
:102D2000FEF722FC0400286838402AD1FEF71CFC7C
:102D3000001B0228F7D976E601402960FEF714FC53
:102D40000400286838401CD0FEF70EFC001B022847
:102D5000F7D968E6012812D06868E96AC0225202F1
:102D60000240A36A9A420AD10907090F226B9142D5
:102D700005D1F02189030140E06A814201D00120A0
:102D8000F2BD0020F2BD0000007000408913000079
:102D9000FFFFFFEFF8B5040066D0009155480068CA
:102DA000C107C90F009881420CD252480168012224
:102DB0009143009A0A4302600068C107C90F009856
:102DC000814251D121684C4D022001420CD049076B
:102DD00004D56968E022D2000A436A606968F0227B
:102DE0009143A2680A436A600127216839402BD0C9
:102DF00061680204012901D1286808E0022903D191
:102E00002868800109D42FE0032903D1686B0240B0
:102E100003D129E02A68104026D068680322904335
:102E200001436960FEF7A0FB060068680C210140C1
:102E300060688000814207D0FEF796FB801B2F4917
:102E40008842F2D30320F2BD2A48009902683A4032
:102E500091420BD20168B943009A0A4302600068AC
:102E600007400098874201D00120F2BD207840073A
:102E700005D5686822490140E0680843686000F0B1
:102E80000FF820496A681206120F895CC8401E4973
:102E90000860032001F016F80020F2BDFFFFFFFEDE
:102EA000F0B51A490B681A481A4A0C241C40082C21
:102EB00002D00C2C1AD0F0BD0F2500BF16A49E0C1A
:102EC0002E40A45D18A6896A0D40715DC0256D0273
:102ED0002E001E4080277F02BE4203D02B40AB4213
:102EE00000D11000FFF7DCF96043F0BD1000F0BD29
:102EF000FF7FC2FF00200240001002408913000043
:102F0000FFF8FFFFAC4F0008B4000020041002409F
:102F100000127A00006CDC020203040506070809AF
:102F20000A0B0C0D0E0F1010010203040506070812
:102F3000090A0B0C0D0E0F107047FEE70100202050
:102F400008437047FDB5B2B03A98049102A93B22FC
:102F5000885400200D9027A8401C31900DE0049863
:102F6000329A90470490002801D100F0D3FE0D98CA
:102F7000401C0D903398401C339033980178002901
:102F80000FD02529EBD100200790089009900A90D6
:102F90000B900C9002250121149108211291339C71
:102FA00005E00D9800F0B8FE010014980843641C79
:102FB00021782029F8D023290BD02B2904D02D29C2
:102FC00004D0302908D00AE02843F0E701000420AB
:102FD000ECE701000820E9E701001020E6E72A29D4
:102FE0000FD134990A681168121D349B1A600F9131
:102FF000002904D54A420F92010004200843641CB2
:1030000012E000210F91644B09E00F99994205DA13
:103010008E0071184900891830390F91641C22788C
:10302000110030390A29F0D321782E2903D000214C
:10303000C9430E9126E0641C21782A2908D13499CD
:103040000A681168121D349B1A600E91641C19E005
:103050002D2901D1641C00E0002100220E920CE019
:10306000002909D10E9A4C4EB24205DA9600B218E8
:103070005200D218303A0E92641C23781A00303A6B
:103080000A2AEDD302A908872678310040487844FF
:10309000FF30401E00F050FF002801D0641C00E00B
:1030A000002602A83A214654682E04D120786828C8
:1030B0000BD1622005E06C2E07D120786C2804D15A
:1030C000712002A93A228854641C18A8069020781E
:1030D00069460870601C33906846047820002538E3
:1030E00033D01C3800D1CDE1001F022800D8C9E13F
:1030F000133801D100F036FD093800D1C2E1801E3D
:1031000001D100F0CCFD401E01D100F079FD401E40
:10311000022800D8B6E1001F01D100F071FD401F68
:1031200000D109E1401E01D100F01CFD401E00D17C
:10313000F1E0C01E0ED0801E01D100F013FDC01EB4
:1031400001D100F00FFD00F0B6FD14980790252086
:1031500000F0ADFD349800680468001D34990860E3
:103160000594002C00D0C2E002A83B21405C00285E
:1031700000D1B6E00024E44306487844163000F05D
:10318000E5FE201A01D000F0C5FD00F0A2FD00BF51
:10319000D41C0000081D0000CBCCCC0C01236A46D7
:1031A00002A9280000F072FE002801D000F0B2FD54
:1031B000641EF3D13295079D18AC002D0FD0329EBE
:1031C00021780498B0470490002801D100F0A2FDB6
:1031D0000D98401C0D90641C6D1EF1D1329630206C
:1031E000694608700A9C002C0DDD329D01236A4659
:1031F00002A9280000F04AFE002801D000F08AFD54
:10320000641EF3D13295059C089D002D0FD0329E8F
:1032100021780498B0470490002801D100F07AFD8D
:103220000D98401C0D90641C6D1EF1D13296302714
:1032300069460F700B9C002C0DDD329D01236A4600
:1032400002A9280000F022FE002801D000F062FD53
:10325000641EF3D13295059808994418099D002DF4
:103260000FD0329E21780498B0470490002801D1F5
:1032700000F050FD0D98401C0D90641C6D1EF1D1A6
:103280003296684607700C9C002C0DDD329D0123A0
:103290006A4602A9280000F0F9FD002801D000F0DC
:1032A00039FD641EF3D1329502A83821405C4007F5
:1032B00000D462E62020694608700198002800DCEE
:1032C0005BE6019C329D01236A4602A9280000F0BA
:1032D000DDFD002801D000F01DFD641EF3D1329504
:1032E0004BE61B4878446830059000F0F2FC0E9DD8
:1032F000002D03D5200000F04DFE09E02A0000213A
:10330000200000F04FFE002801D0001B00E0280044
:10331000089000F0DEFC349800680268001D3499C3
:1033200008600020C0430021104002AA03C218A870
:103330000590782100F0AFFC02A83B21415C0029F8
:1033400008D00024E4434B487844FF30293016E786
:10335000681B00003A21405C62286AD0682819D0B6
:103360006A2845D06C2806D071284FD0742831D0F7
:103370007A2821D06FE0349801680868091D349AD2
:10338000116000287AD10024E4433B487844FF30A0
:103390001738F4E6349801680868091D349A1160FA
:1033A000002805D10024E44333487844CA30E6E6D7
:1033B0000D99018000F08DFC349801680868091DA2
:1033C000349A1160002859D10024E4432A487844F3
:1033D000A630D4E6349801680868091D349A116053
:1033E00000284BD10024E443234878448A30C6E6C1
:1033F000349800680268001D34990860002A13D1CF
:103400000024E4431C4878446E30B8E634980068E1
:103410000268001D34990860002A05D10024E443A5
:10342000154878445230AAE60D98C11703C200F03F
:1034300050FC349801680868091D349A116000280E
:1034400005D10024E4430C4878442C3097E60D99CC
:10345000017000F03EFC349801680868091D349A38
:10346000116000280AD10024E4430348784408305E
:1034700085E600BFF81900000C1A00000D990160E4
:1034800000F027FC34980068C21D0720824334985E
:10349000026003CA349B1A6002AA03C22022C80F2A
:1034A00004D007982D2118AA11540DE002A8008F0E
:1034B000284204D007982B2118AA115404E0C00711
:1034C00004D5079818A90A54401C079018A8079912
:1034D00040181390059027AD02A803C816AA03C28E
:1034E000684600782021014368464170612909D06F
:1034F0000E98002801D5062003E003D1672901D1E9
:1035000014980E9002A803C80F0006187F417E157C
:10351000FF17BBA20CCA9F4212D1964210D10903D9
:10352000020D11430003002901D1002808D0032017
:103530000890613C1A2C19D3244979448E3110E04B
:1035400002A803C8080041004915994212D100039E
:1035500010D103200890613C1A2C21D31C497944D6
:103560006E3103221398FEF7D1FEB2E31949794474
:103570006231F6E701AA02A803C800F01EFD02AA04
:1035800003C268464078612813D105983021017044
:10359000811C059169460978612905D1782104E0EB
:1035A0000D4979443231DCE7582141700798801C7D
:1035B000079002A803C894A20CCA02400B400DD188
:1035C000002A0BD10024002669E100BFF418000096
:1035D000F8180000E8180000EC1800006846407871
:1035E000612800D097E00E98002801D5212000E046
:1035F000401C1390139F7F1C16A803C800220023B1
:1036000000F0F0FC02A830C802D28020000645403D
:103610000198001F01909C2169440A7027A8461C4C
:10362000002F31DD20002900002280235B0300F001
:10363000F2FC29D81C2200F007FD04000D0000F068
:103640003BFD1590FF1F002F09DD00F06FFD02000C
:103650000B002000290000F0D0FD04000D00F01D3B
:103660000722159900290ADD521E08D4401E0B07B7
:103670001B0F03700911F5E7401E00210170521E57
:10368000FAD5C61D002FCDDC27A83199711A27AABB
:10369000551C139A0C00914200DD1400002C33D409
:1036A0008C4205DA411C095D082901DB0F2100E08D
:1036B0000021220027AB9B1801E0641E5B1E521EF6
:1036C0001E788E42F9D00F2904D1411C895C491C17
:1036D000401C8154002A04D527AD641C0198001DAC
:1036E0000190611E10D46A18684600781378303350
:1036F000DEB23A2E01DBC318C6331370491E521EC8
:103700000029F3D5694608700E98002800D4C5E05A
:10371000601E0E90C2E016A830C86D006D080198BA
:103720006C4948436C49FEF7A7FD019007200199B9
:10373000401A002805DD02002000290000F080FB6F
:103740000AE042420020664900F07AFB02000B00CA
:103750002000290000F0C8FD6A465278662A02D18E
:10376000019A0A3200E006220E9B9A18142A00DD04
:10377000142227AB30241C705C1C02E016A803C87E
:10378000139A002A44DD16AB03C3139216A803C88C
:1037900000F0A4FC159005460834042628000A21F0
:1037A000FEF77EFD0F0028000A21FEF779FD0500D7
:1037B0003037601E077028000A21FEF771FD0F00E8
:1037C00028000A21FEF76CFD0500A41E3037277083
:1037D000761EE3D108341398083813900028CDDD05
:1037E000159800F093FC02000B0016A803C800F027
:1037F00004FD00223B4B00F0D8FD16AA03C2C5E72A
:10380000FFFFFFFFFFFFFFFFFFFFFFFFFFFFFF7F48
:103810003198201A27A94D1C04E0401E0199491E29
:1038200001916D1C29783029F7D020216A46127841
:1038300011436A46517069464978662902D1019957
:10384000491C06E069464978652901D1149900E0D0
:1038500000210E9A5418A04200DA441E002C1DD4F8
:10386000844204DA285D342801DD392000E030206C
:1038700021006A1E531801E0641E5B1E491E1E785B
:103880008642F9D0392802D1685C401C685400296E
:1038900004D51500641C0198401C0190019E1395ED
:1038A000684600786946887000F042FE406A0078F9
:1038B000694608700E9D20B2002804DC149C07485D
:1038C0007844183013906846407866280CD1761CEE
:1038D00024E000BF97750000A0860100F0150000ED
:1038E0000000F03F84D7974168464078672846D16A
:1038F00030B20321C943884247DBA84245DA761C2F
:1039000002A8008F1299C0B2084203D120B2A84287
:1039100000DC050030B22D1A00D5002537B2002F8B
:1039200000DDBAE00898411C08913021059A115435
:10393000002D05DC02A8008F1299C0B2084206D003
:103940000898411C089169460978059A11547842F3
:10395000854200DA6E4236B270420B90AD1920B249
:10396000854200DA2C0024B20994220013990598AC
:10397000089BC018FEF7CAFC281B0C90DAE06846CA
:103980008078612818D170201BE020B2A84206DAA6
:1039900002A9098F129AC9B2114200D105006D1E09
:1039A00000D5002568468078672802D165206946E1
:1039B00007E04520694604E068468078412801D147
:1039C000502088700898411C089113990978059A2D
:1039D00011541398411C002D05DC02A8008F129A87
:1039E000C0B2104219D00898421C08926A46127858
:1039F000059B1A54002D10DD641E20B2854200DAAA
:103A00002C0022B20598089BC018FEF77FFC24B258
:103A1000089800190890281B0B90059808994118E0
:103A200068468078087030B2002803D42B20487094
:103A30008F1C03E02D224A708F1C4642002412ADD9
:103A4000300008E00A21FEF717FC15AA03C229700E
:103A50001598641C6D1C00B20028F3DC012C08DCF6
:103A60006846807820210143652902D130203870D2
:103A70007F1C002C09D1302038707F1C07E0641EA9
:103A800012A8005D303038707F1C002CF7DC0598E0
:103A900008994018381A09904CE020B231B2884297
:103AA0001DDA22B213990598089BC018FEF72EFC68
:103AB00024B2089800190890391B0B91002D05DCE1
:103AC00002A9098F129AC9B2114206D06946097833
:103AD000059A11540998401C09900C952AE032B2BD
:103AE00013990598089BC018FEF710FC0898C01998
:103AF0000890A41B002D05DC02A9098F129AC9B2F7
:103B0000114205D0411C089169460978059A115463
:103B100020B2854200DA2C0022B21398C119059810
:103B2000089BC018FEF7F2FB24B208980019089011
:103B3000281B0B9002A83821405C14210140102959
:103B400000D0C6E00798089940180B9940180999C9
:103B500040180C9940180F99884200DBB9E0081A08
:103B60000A90B6E002AA3A20105C622808D06828C1
:103B70000ED06A2814D06C281DD0712810D01AE0FD
:103B8000349801680868091D349B1960C0B218E0B8
:103B9000349801680868091D349B196080B210E0F0
:103BA00034980068C31D072083433498036003CB17
:103BB000349C236006E0349801680868091D349B32
:103BC0001960002102AB03C3108F1299C0B20842E2
:103BD0005BD002A803C8002901D1002855D068464F
:103BE00000782021014378294FD1079818A9302265
:103BF0000A54401C421C07926A4612780A5444E058
:103C000002AA3A20105C622808D068280ED06A28E0
:103C100014D06C281DD0712810D01AE03498016897
:103C20000868091D349B196040B218E03498016897
:103C30000868091D349B196000B210E034980068D0
:103C4000C31D072083433498036003CB349C236057
:103C500006E0349801680868091D349B1960C11793
:103C600002AB03C3002902DA07982D2109E0108F67
:103C7000284202D007982B2103E0C00705D50798FA
:103C8000202118AA1154401C079018A80799401821
:103C900005906846017802A800F040F819E01498F1
:103CA0000790349801680868091D349A11606021F2
:103CB000694408700DE0149807902520602169443C
:103CC000087068460078002803D007956846007899
:103CD00048700F980799401A0A99401A0899401A93
:103CE0000B99401A0999401A0C99401A019002A8A0
:103CF0003821405C400701D5FFF75DFA2020694676
:103D000008700198002801DCFFF755FA019C329DEC
:103D1000FFF744FA0020C04335B0F0BDF2B586B0DD
:103D2000040025696F2901D1082707E00846FFF73D
:103D300005F9782801D00A2700E010273C2603CC9B
:103D4000083C04AA03C26A46127E642A03D06A466B
:103D5000127E692A09D1002907DA04A803C80022C3
:103D60000023121A8B4104A80CC004A803C8002920
:103D70000DD100280BD1206B002808D1082F3DD190
:103D80003820205C000739D53B26302035E00294EE
:103D9000009504A830C8761E0196200029003A003C
:103DA000002300F0CBFB3032D0B23A280DDA009875
:103DB0008255200029003A00002300F0BFFB0400D8
:103DC0000D0007D1002C05D10AE06846007E82185C
:103DD000AF32ECE70298C068009989198842DAD3BB
:103DE000029C009D082F09D13820205C000705D5D2
:103DF000A85D302802D0761E3020A8553C20801BBC
:103E0000A061A919E160216B884206DA081A2062D4
:103E1000208F1C490140218710E000290ED5382150
:103E2000615C14220A40102A08D1616B6269891A08
:103E3000226A891A081A002800DD206207B0F0BD46
:103E4000F8B50026104F04000D00009214E0C007E2
:103E500007D532003B002000290000F0A6FA04003C
:103E60000D000098401000903000390032003B00F7
:103E700000F09BFA06000F0000980028E7D1200010
:103E80002900F4BDEFFF000000002440F8B5002435
:103E9000002B11D007000E0014001D002178B0681F
:103EA000B847B060002809D0F06A401CF0620020DA
:103EB000641C6D1EF2D104002000F2BD0020C0433E
:103EC000F9E7FEE738B505000D4CFA2080002178AF
:103ED000FEF7E6F901000B480068FEF7E1F9FEF78E
:103EE000AFF900280AD1042D08D2002229000020B1
:103EF000C043FEF798F9A560002032BD012032BD15
:103F0000A8000020B400002081B0012009490A68FF
:103F100002430A600A681040009000988020400523
:103F20004A6802434A60496808400090009801B01E
:103F3000704700BF18100240C9B202788A4203D00D
:103F4000401C002AF9D100207047FEE780B5002808
:103F500001D100BF07A006490B68002B03D0222225
:103F60000021984701E000F027FB222002BD00005D
:103F700048080020636F6E73747261696E74206804
:103F8000616E646C65723A20626164206D65737362
:103F900061676500431C0178401C0942FBD1C01ACF
:103FA0007047FEE7C9B2521E05D30378401C8B420E
:103FB000F9D1401E70470020704710B5144600F03C
:103FC00002F8226010BD4A0053155B1C08D0520D48
:103FD00006D003231B02FE3AD21A1305C91A7047F2
:103FE0000022704730B4012464054D00EC420BD828
:103FF0005D00EC4208D80C001C43640004431443E9
:1040000004D2994200D1904230BC7047FCD08B4220
:10401000FAD18242F8E730B4012464054D00EC4245
:104020000BD85D00EC4208D80C001C43640004432C
:10403000144304D28B4200D1824230BC7047FCD082
:104040009942FAD19042F8E7124217D40023DB4399
:104050005B0D9C464B005B0D06D0634504D09B185E
:10406000634502D21205891870476246090D114353
:104070000905002000B500BF00BF00BD52424B0043
:104080005B0DF1D05B1C5B05EED25B0D934102D959
:104090001205891A70470BD10B031B13C90FC907EF
:1040A000821C002043411343E4D912051143E1E788
:1040B000C90FC9070020DDE7F4464A1805D200F011
:1040C0000FF801D580174008604700F009F801217A
:1040D000C907884200D90800404260474A1812D2F6
:1040E000400DC90208430121C9070843520D402170
:1040F0000901521A521C06D452421F3201D4D04038
:104100007047C017704700207047FEE70100422249
:104110001201D21E004207D002D4521E0018FCD554
:10412000C10A400512058918704700000100EED54C
:104130004042F446FFF7EBFF0122D20711436047EC
:104140008B4200D1824205D98446100062468C46DB
:1041500019006346DF184C18640D7F0D3AD0661CB9
:10416000760537D0E61B352E34DCDB022B43DB0A29
:104170000C0DC9022943C912202E0DDB1700203E69
:1041800006D01F00F741F3405F400026012A774127
:10419000C01871410DD217E01700F741F2405740A7
:1041A000F3415A40B340F3405A4000268018594129
:1041B0000AD3A21C52050FD0C207012F724117006B
:1041C0004008CB0718434908641C24054208AF4146
:1041D00070416141F0BC7047641C21050020F9E783
:1041E0006B4010E06B40ABE7F742F3D1E943F1E7F6
:1041F0002442EFD100200021ECE7F0B40125ED07C7
:104200000F005F40EED40C00871A9C4105D2C01B02
:10421000A141D219634169406B40AE0ADF184C18C6
:10422000F442E1D2640D7F0DE2D0E61B362ED1DCE4
:10423000DB022B43DB0AA4460C0DC9022943C90A41
:10424000012E28DC04D1D6075208DF073A435B0869
:10425000EF0A76429041994114D039423BD1B619C8
:1042600040414941761C394204D1761C001849412D
:104270003942FAD0B9436746B74208D9A41B24058E
:104280002143A7E70042EAD13642E8D1A2E7E40A97
:10429000E10700209EE7202E0BDD203E1F00F340AB
:1042A000F7415F40012A002257417E4298419141E7
:1042B0000BE01700F741F2405740F3415A40B3403A
:1042C000F3405A407E42904199410A0303D2641E52
:1042D000B619404149410027641E24054208AE41F9
:1042E00078416141F0BC7047F0B40E005E4001259A
:1042F000ED072E40B446AE0ADF184C18F4423BD20C
:10430000F74241D2640D43D07F0D38D0E41BC9027F
:10431000DB0229432B43CF0ADB0A0600B61A9F4172
:1043200004D2641EB6197F41B6185F416812800D31
:1043300024180018844222DCE80C0021B6197F41C1
:10434000B61A9F4102D2B6185F413F1C4041494115
:10435000F4D3241C21DD2405B6197F41B61A9F41F0
:1043600005D33743C60737430026012F704161410B
:1043700066463143F0BC7047FCD1F74205D20020BD
:10438000C14349054908F3E704D00020C143F1E7E0
:104390007F0DFAD000206146ECE72442FAD1401CA0
:1043A00061410F03F6D30020E2E7F0B50E005E4056
:1043B0000125ED072E40B446AE0ADF184C18F44232
:1043C00008D2F7420ED2640D01D07F0D12D1002029
:1043D0006146F0BD05D1F74201D87F0D05D100201F
:1043E000C143F0BDFBD1640DF9D00020C1434905A4
:1043F00049088FE0E419C902DB0229432B43DB0A99
:10440000460DC00231438E4630B487B295B27D432B
:104410002E0CADB2140C7C43A419260C24042543A5
:104420009CB27C43A419190C7943270CC919A4B276
:104430000F043C43090C000C97B247432E0CBE19E5
:104440003543ADB2170C4743360CBF19A6B2BF199E
:104450003E043543240C3E0C36199FB24743BF1926
:10446000BCB23E0C89191F0C47437F183E043443ED
:10447000390C704680B297B247432E0CBE193543B3
:10448000ADB2170C4743360CBF19A6B2BF193E0494
:104490003543240C3E0C36199FB24743BF19BCB2BA
:1044A0003E0C89191F0C47437F183E043443390CD6
:1044B00077463F0C90B278432E0C80190604ADB2BB
:1044C0002E43050CA0B22D18120C7A435019020C81
:1044D00080B2240CA4189AB27A431219140420430F
:1044E000120C89181B0C7B43C91830BCEF0A3942E7
:1044F00003D1B61940414941641E6F12BF0DE41B40
:104500000BDBFF19BC4211DA240500274208AE413B
:104510007841614166463143F0BD641C05D1401CC1
:104520006141CF0201D34908F4E750E75DE7FEE7B8
:104530000148704700000000B800002012422DD052
:10454000994231D970B500251B4209D00C000021D9
:1045500012E01100FDF7A4FE0A000021002370BD47
:104560000942F6D00024012649186441944200D340
:10457000A41A7641F8D33100012601E0764109D230
:10458000001864416D41A41A9D41F7D2A4185D4101
:10459000B619F5D3300022002B0070BD1B42CFD1DD
:1045A00008B500F00FF808BD01D19042CAD2020050
:1045B0000B0000210020704780B5012000F004F8B6
:1045C00001BDFEE77047FEE780B500BF00BF024AAD
:1045D00011001820ABBEFBE726000200000000001F
:1045E00000000000000000000000000000000000CB
:1045F000001000100010001000100010000000104B
:104600000000000000280028002800000000000032
:10461000000000000000000000240024007C0024B2
:104620000048007C004800480000000000380054AA
:1046300000500038001400540054003800100000EE
:1046400000200054005800300028005400140008D6
:10465000000000000010002800280010003400486E
:10466000004800340000000000100010001000009E
:104670000000000000000000000000000008001022
:104680000020002000200020002000200010000852
:1046900000200010000800080008000800080008BA
:1046A000001000200010003800100028000000005A
:1046B00000000000000000000000000000100010DA
:1046C000007C00100010000000000000000000004E
:1046D00000000000000000000000001000100010AA
:1046E0000000000000000000000000380000000092
:1046F00000000000000000000000000000000000BA
:104700000000001000000000000800080010001069
:1047100000100010002000200000000000380044BD
:1047200000440054004400440044003800000000ED
:104730000010003000500010001000100010001099
:10474000000000000038004400440004000800108D
:104750000020007C00000000003800440004001825
:1047600000040004004400380000000000080018A5
:10477000002800280048007C000800080000000015
:10478000007C004000400078000400040044003831
:10479000000000000038004400400078004400445D
:1047A0000044003800000000007C000400080010F5
:1047B000001000200020002000000000003800440D
:1047C0000044003800440044004400380000000069
:1047D0000038004400440044003C00040044003819
:1047E00000000000000000000010000000000000B9
:1047F0000000001000000000000000000000001099
:104800000000000000000010001000100000000078
:10481000000C003000400030000C000000000000E0
:10482000000000000000007C0000007C0000000090
:1048300000000000000000000060001800040018E4
:104840000060000000000000003800440004000880
:1048500000100010000000100000000000380044AC
:10486000004C0054005C0040004000380000000094
:1048700000100028002800280028007C0044004484
:104880000000000000780044004400780044004428
:104890000044007800000000003800440040004060
:1048A0000040004000440038000000000070004854
:1048B0000044004400440044004800700000000030
:1048C000007C00400040007C004000400040007C34
:1048D00000000000007C00400040007800400040E4
:1048E000004000400000000000380044004000404C
:1048F000005C004400440038000000000044004414
:104900000044007C004400440044004400000000D7
:1049100000380010001000100010001000100038C7
:10492000000000000004000400040004000400046F
:1049300000440038000000000044004800500060BF
:1049400000500048004800440000000000400040C3
:1049500000400040004000400040007C000000009B
:104960000044006C006C00540044004400440044C7
:104970000000000000440064006400540054004C37
:10498000004C004400000000003800440044004493
:104990000044004400440038000000000078004457
:1049A0000044004400780040004000400000000047
:1049B00000380044004400440044004400540038DF
:1049C00000040000007800440044004400780048DF
:1049D000004800440000000000380044004000305F
:1049E000000800040044003800000000007C0010B3
:1049F0000010001000100010001000100000000057
:104A00000044004400440044004400440044003892
:104A10000000000000440044004400280028002852
:104A20000010001000000000004400440054005436
:104A30000054006C002800280000000000440028FA
:104A4000002800100010002800280044000000008A
:104A5000004400440028002800100010001000103E
:104A600000000000007C000400080010001000207E
:104A70000040007C00000000001800100010001032
:104A8000001000100010001000100018002000207E
:104A900000100010001000100008000800000000C6
:104AA0000030001000100010001000100010001066
:104AB0000010003000100028002800440000000012
:104AC00000000000000000000000000000000000E6
:104AD0000000000000000000000000FE00200010A8
:104AE00000000000000000000000000000000000C6
:104AF0000000000000380044003C0044004C00343A
:104B000000000000004000400058006400440044E1
:104B1000006400580000000000000000003800445D
:104B20000040004000440038000000000004000481
:104B30000034004C00440044004C003400000000ED
:104B40000000000000380044007C004000440038B1
:104B500000000000000C0010007C0010001000108D
:104B60000010001000000000000000000034004CA5
:104B700000440044004C0034000400780040004031
:104B80000058006400440044004400440000000059
:104B90000010000000700010001000100010001045
:104BA0000000000000100000007000100010001055
:104BB00000100010001000E00040004000480050CD
:104BC0000060005000480044000000000070001029
:104BD0000010001000100010001000100000000075
:104BE00000000000007800540054005400540054A9
:104BF0000000000000000000005800640044004471
:104C000000440044000000000000000000380044A0
:104C10000044004400440038000000000000000090
:104C20000058006400440044006400580040004004
:104C3000000000000034004C00440044004C0034EC
:104C40000004000400000000005800640040004020
:104C50000040004000000000000000000038004458
:104C60000030000800440038000000000020002050
:104C70000078002000200020002000180000000024
:104C8000000000000044004400440044004C003494
:104C9000000000000000000000440044002800283C
:104CA0000028001000000000000000000054005424
:104CB0000054006C002800280000000000000000E4
:104CC00000440028001000100028004400000000EC
:104CD00000000000004400440028002800100010DC
:104CE0000010006000000000007C000800100020A0
:104CF0000040007C000000000018001000100010B0
:104D000000200020001000100010001800100010FB
:104D10000010001000100010001000100010001013
:104D200000300010001000100008000800100010F3
:104D3000001000300000000000000074004C000073
:104D40000000000000000000FEE7FEE7704770472B
:104D500080B500F03FF801BD10B5184801788022F9
:104D6000174B1C68144001D01A60022140221C68B5
:104D7000144001D01A60012120221C68144001D087
:104D80001A60032110221C68144001D01A6004210B
:104D9000017010BD80B50B48FCF770FC01BD80B5FB
:104DA000094801688969E022D2000A4002D0FBF775
:104DB00049FB01BDFBF73CFB01BD000008000020E2
:104DC00014040140D40700208007002080B5FDF7BF
:104DD000E4FB01BD024841680278891841607047D0
:104DE000A8000020F1B401684118436858080A1867
:104DF00000988068DB0701D54B46C01891422DD042
:104E00000D78491C032403262E4002D10E78F61C8F
:104E1000491C2B090F2B07D10B780F33491C03E0DA
:104E20000F78491C0770401C761EF9D1002BE5D085
:104E30000E78491CAD082C40032C01D10C78491C7C
:104E400024023419654244190025AE1E9E42D5D075
:104E50002678641C0670401C6D1CF6E700980C3028
:104E6000F2BC7047686A6C747A4C00007072696EAC
:104E700074665F733A20256E20646973616C6C6F91
:104E8000776564007072696E74663A2062616420AE
:104E9000256E20617267756D656E74007072696E43
:104EA00074665F733A2062616420257320617267C3
:104EB000756D656E74000000000000006E616E008C
:104EC0004E414E00696E6600494E4600300070B497
:104ED0000121002213E00368001D0B4202D04D4661
:104EE000EB185B1E1A601B1D241F042CFAD21D0038
:104EF000A60701D51A80AD1C0C4000D02A700468AA
:104F0000001D002CE7D170BC7047FEE710B50749C3
:104F100079441831064C7C44163404E0081D0A68B4
:104F2000891888470100A142F8D110BD080000008F
:104F3000240000009BFFFFFF60070000F00000203E
:104F400000000000A1FEFFFFA30000002001000000
:104F50000000002000F00DF8002801D0FFF7D6FF78
:104F600000BF00BF002000BF00BFFCF7B1FF00F092
:104F700002F80120704780B500F002F801BDFEE79D
:104F800007463846FFF720FBFBE7FEE705480146EA
:104F900003B4684680F3098800BF00BF00BF00BFAC
:104FA000FFF7D8FFA5EDF5FE7047000000000000F8
:104FB00000000000010203040607080901488047B9
:104FC00001480047A94F00088D4F0008FEE7FEE7A3
:104FD000FEE7FEE7FEE7FEE7FEE7FEE7FEE7FEE7A9
:104FE000FEE7FEE7FEE7FEE7FEE700F00B1A070A22
:104FF0000000DC450008000000010001100CB004B6
:10500000000060090000C012000080253A124B0425
:1050100012960412E1045002C20100034D1013F96C
:105020001D0008151E0008611A0008D9190008891A
:105030001B00080D041003211C0008550412A904CC
:10504000126B0412392812E508100F80AE80B08070
:105050008180FF80AD808B803280AFB91812B70499
:10506000619D1177F007070000127A00EA4F0008EF
:0B5070000452FF01E38E1F1403000038
:0400000508004F8D13
:00000001FF
