:020000040800F2
:100000009810002031340008793200087B32000853
:1000100000000000000000000000000000000000E0
:100020000000000000000000000000007D32000819
:1000300000000000000000007F320008813200084C
:10004000070D00080F1D0008131D0008C733000826
:10005000D3330008413400084334000889320008D3
:100060004534000847340008493400084B34000880
:100070004D3400084F340008513400085334000850
:100080005534000857340008593400085B34000820
:100090005D3400085F3400086134000863340008F0
:1000A000AB32000865340008673400086934000882
:1000B0006B3400086D3400086F3400087134000898
:1000C00070B5040001D1012070BD25004035002627
:1000D0006878002803D12E70200000F0A0FD2420B5
:1000E0006870206801680122914301606068794965
:1000F000014020680161216877488A6802408A606F
:10010000E1680129A16801D1C24301E08422120201
:100110000A4321688A60E168022921684A6803D19C
:1001200080231B01134301E06C4B13404B6021689B
:100130004A686B4B13434B602168CA681040C86023
:10014000206961690143A069000208432168C86011
:10015000E069216A0143206801602068016801228A
:100160000A4302606E60202068702663AE70002033
:1001700070BDFEB504000F0016001D004030407831
:10018000202800D0A2E04020205C012800D19DE082
:1001900001204021605400F083FD0190009019235C
:1001A0000122D103200000F0C5FB00284BD1212003
:1001B000210040314870102021004031887000201B
:1001C0002100403148606662658560634548089E4D
:1001D000618DFF2904D9FF21218580235B0405E07F
:1001E000618D218580239B04002915D0616A0978DF
:1001F00022689162616A491C6162618D491E618554
:10020000228D521E22850090521CD2B2390020004D
:1002100000F0A6FC019D0DE000900022F6E7FF2013
:1002200020850020009080235B04FF2239002000FD
:1002300000F096FC608D00282ED02A0031002000AE
:1002400000F0B6FB00283FD1606A00782168886220
:10025000606A401C60622448618D09186185218DA7
:1002600008182085618D0029E4D00004E2D10095B2
:10027000330000228021200000F05CFB002823D105
:10028000608DFF28CBD8608D2085002000908023D2
:100290009B04228DD2B2C9E731002A00200000F071
:1002A000B7FB01000ED120202268D061226853687C
:1002B0000E4D1D405560220040325070002000233A
:1002C00093701070080002D00120FEBD0220FEBD18
:1002D00000000000FFFFFFF0FF7FFFFFFFF7FFFFC1
:1002E0000080000200200080FFFF000000E800FE08
:1002F000026891691268436B002B00D1704780B58A
:10030000984701BDF8B501688A690B461B688024CF
:1003100065002A4206D0234204D0466C01273743A9
:100320004764CD61E1000A4207D0234205D0456C05
:1003300008262E4346640568E96149080A4007D04B
:100340001C4005D0426C0223134343640268D16110
:10035000416C0B220A4001D000F02AFAF1BDF8B539
:100360000400E06A4023E35C012B01D10220F2BDCE
:100370000123402563552023194205D0134003D0A3
:10038000200000F005F97BE0AB0404253F4E102768
:10039000394234D03A4232D0628D002A1BD1220039
:1003A00040325278282A06D15A00904203D12000C8
:1003B00000F0C8F964E0210040314978292907D1CB
:1003C000B04205D02068C761200000F08CFA54E0EC
:1003D0002068C76154E02168CF612100403149683D
:1003E0000D43210040314D60002801D0984247D193
:1003F000200040304168200000F0DAF940E0F74387
:10040000294217D0154015D0618D00290CD02168E4
:10041000496A626A1170616A491C6162218DC91959
:100420002185618DC9196185618D002928D1B0426E
:1004300026D022E00825294205D0154003D020000F
:1004400000F026F81CE00225294019D0154017D0ED
:10045000618D00290DD0606A007821688862606A29
:10046000401C6062608DC0196085208DC019208598
:1004700006E0984201D0002802D1200000F055F893
:10048000002040216054F2BD000000000000FFFF8A
:10049000FEB506003400403430680025082261783B
:1004A00028230B40282B3DD18169C903CB0F694616
:1004B0000B708169090CFE270F4081688905890D41
:1004C0006B465980C168FE230B4069468B8011033F
:1004D000F368022B1BD106231F40BC466F467F8862
:1004E000FF093B409C450BD1A168491CA160A16854
:1004F000022919D1A560C2612570684642880CE0C6
:10050000300000F045FB25706846828805E0300029
:1005100000F03EFB25703A0068460178300000F09C
:10052000C5FBF7BDC2612570F7BD70B5040020683A
:1005300001682600403600250022B2704A0402D528
:1005400001687E4A03E0090403D501687C4A0A4039
:1005500002602820717829290BD170702120206336
:100560000121200000F014FB3570200000F09FFBFB
:1005700070BD71782A290AD170702220206302216F
:10058000200000F005FB3570200000F091FB70BDED
:10059000FEB504002068006802900091E06A0190B6
:1005A00025004035687820272168CF610026212862
:1005B00001D0292805D17C49200000F0E9FA21204A
:1005C00008E0222801D02A2806D17849200000F02E
:1005D000DFFA2220206306E0282804D1B449200055
:1005E00000F0D6FA266320684168BA020A434260E6
:1005F000206841686B4A0A404260200000F073F9AD
:100600000298400406D5206801684C4A0A400260FE
:10061000A06B08E0029800040AD520680168484AE7
:100620000A400260E06B002802D0006840686085E4
:1006300004200099014012D0009981430091216863
:10064000496A626A1170616A491C6162218D0029E0
:1006500005D0984A89182185618D89186185618D39
:10066000002902D06968014369601021009A0A409C
:1006700033D0029A0A4030D0628D002A1ED16878A9
:10068000282808D101984A05904204D100992000F9
:1006900000F058F821E0687829280CD10198994A8F
:1006A000904208D02068C161200000F01CF92000B1
:1006B000FFF73BFF11E02068C1610EE02268D161C5
:1006C0006968084368600198002802D0F9048842EC
:1006D00003D16968200000F06BF80020A870666301
:1006E000686800280BD06968200000F061F868781D
:1006F000282821D10099200000F024F8F7BDE06AF5
:10070000804988420BD02000FFF70FFF7D48E06250
:100710006F7026632E70200000F0CBFAF7BD68786A
:1007200022286F7026632E7003D1200000F0C0FADB
:10073000F7BD200000F0BBFAF7BD0000FFBFFFFFD0
:10074000FF7FFFFF70B504006E48E062002525635F
:1007500026004036202070700020B07065630420B1
:10076000014012D02168496A626A1170616A491CAD
:100770006162218D002908D04E4A89182185618D3A
:10078000891861857168084370604949200000F04C
:10079000FFF910202168C8613570200000F089FA47
:1007A00070BD000000E800FE018000000280000033
:1007B000F8B5040027004037787800250022BA7089
:1007C000504AE262002262857A68114379602828E3
:1007D00003D0292801D02A2808D10321200000F0C5
:1007E000D7F928207870484860631CE03049200021
:1007F00000F0CEF9200000F076F87878602811D06B
:1008000020202021797021688A6902400AD01022B4
:100810008B69134004D0CA61796804220A437A6064
:100820002168C8616563206B384EA16B00291AD01E
:10083000112801D0212816D120680168490403D568
:100840000168334A0A400260A06B00F057FA0128A1
:1008500029D0A06B46633D70A06B00F02BFA0028F6
:1008600024D0A06B1CE0E16B00291CD0122801D021
:10087000222818D120680168090403D50168254A97
:100880000A400260E06B00F039FA01280BD0E06BFF
:1008900046633D70E06B00F00DFA002806D0E06B77
:1008A000416B8847F1BD200000F006F8F1BD000063
:1008B00003800000FFFF000010B50100303100226E
:1008C0004123C35C602B08D12023412403550A60D7
:1008D0004021425400F015FA10BD0A6040214254F4
:1008E00000F010FA10BD00688169890701D5002168
:1008F0008162012182690A4002D1826911438161CA
:10090000704700000000FFFF5F030008190900089E
:10091000FFBFFFFFFF7FFFFF80B5406A816B0022B2
:10092000002900D04A63C16B002900D04A63FFF759
:10093000C3FF01BDF8B50092002405000F001E00A2
:10094000286880693840B84201D1012000E00020C9
:10095000009988422AD1069A3100280000F082F8D6
:10096000002812D10020C0438642E9D000F098F957
:100970000699401A864201D3002EE1D12868806989
:100980003840B84203D1012002E00120F2BD00202E
:1009900000998842D4D128004030202142680A437F
:1009A00042604170002181700470EEE70020F2BDCA
:1009B000F8B5022604000D00170020688069304059
:1009C00024D13A002900200000F04CF8002804D17E
:1009D0000020C0438542F0D001E00120F2BD00F0CC
:1009E0005FF9C01B854201D3002DE6D120688069E4
:1009F0003040E2D120004030202142680A4342606A
:100A000041700021002282700170E6E70020F2BDF3
:100A1000F8B5202504000E001700206880692840E2
:100A20001ED13A003100200000F01CF8002801D04F
:100A30000120F2BD00F034F9C01B864201D3002E24
:100A4000EBD1206880692840E7D120004030416820
:100A50002943416045700021002282700170E7E760
:100A60000020F2BDFEB50600002430688369002531
:100A700017001022134040D0C261009131E02100E4
:100A800033D100980021C94388422AD000F008F9E8
:100A9000C01B0099814201D3002922D130684168EE
:100AA00032004032927883691B040BD58023DB012E
:100AB000194007D1202A05D041680B43436000F05C
:100AC000EFF8070001962026019800688069304001
:100AD00006D100F0E5F8C01B1A28F5D32025012423
:100AE000019E306881698906C9D5002C01D1202179
:100AF000C161280004250543012430688169012370
:100B00001A02114202D01D43C26101249000014229
:100B100005D02A00082515433268D0610124400819
:100B2000014006D0290002250D433168C861012427
:100B300001E0200012D03000FFF7D5FE3068416898
:100B4000114A0A4042603000403041680D43456020
:100B50002021417000210022827001702000FEBD22
:100B6000F0B5059C00684568660D084F3743BD43E6
:100B70008905890D12040A4313431C436100490887
:100B800029434160F0BD000000E800FEFF63FF0361
:100B900010B500222823CC0706D542224124045D4B
:100BA0001C40282C00D0F2228C070AD514004422C5
:100BB00022434124045D2340282B02D01300B0229D
:100BC0001A430B0402D51300B8221A43102902D18C
:100BD0001100902208E0202902D11100202203E018
:100BE000402902D1110040220A4300680168914364
:100BF000016010BD81B0012025490A6802430A60E6
:100C00000A68104000900098802040054A6802431E
:100C10004A60496808400090009801B0704710B5DC
:100C200086B004001421002201A800F06FF82068AB
:100C30001849884229D18020C002174C21680143FD
:100C400021602168084000900098C02000010190B8
:100C500012200290002003900320049001200590B0
:100C600001A90E4800F058F88020C003A168014394
:100C7000A160A1680840009000980022002118207F
:100C800000F047F9182000F048F906B010BD000048
:100C900018100240005800401410024000040048A0
:100CA00001484068704700BF080000207047704747
:100CB0007047704770B50021002401222123C35CD6
:100CC000022B03D004218163012415E003681D6811
:100CD0000E26B5431D6003681D6895431D60036CB7
:100CE00001259D40C36B5D602123C25420228154A5
:100CF000416B002900D08847200070BD2121405C55
:100D0000704770477047FEE7002200BF094202D0DB
:100D1000491E4254FCD17047FFB500220F230293B5
:100D20002DE0052403E0654CA042FAD104246D4671
:100D30002D78AC403443019D2C60614CA568DC43A8
:100D400025404E68F60200D51D435D4EB560F5683E
:100D500025404F68BF0200D51D43F56075682540EA
:100D60004F68BF0300D51D43756035682C404D6842
:100D7000ED0302D525001C002C433460521C0B6887
:100D80001C00D44000D191E0012595402B40F5D0C6
:100D900054000326A640F74301974E68B707BF0FDC
:100DA000012F03D0B607B60F022E0ED18668019F21
:100DB0003740CE68A6403E4386604668AE434D68E5
:100DC000EF06FF0F97403743476095006E467570FA
:100DD0000D79AD07AD0F032D26D0C568019E2E40BD
:100DE0008D68A5403543C5600D79AD07AD0F022D67
:100DF0001AD1D508AD0045192E6A03966E4676784D
:100E00001C2737406E463770039EB446029F6E46DD
:100E10003678B7406646BE43B4460F696E463678AC
:100E2000B740664637432F6207680325019E3E4060
:100E30004F682F40A740374307604C682E04264078
:100E40009CD001241F4E366826431E4F3E603E460E
:100E5000366826400196019E1B4E9708BF00F61982
:100E60000196019E366803966E4676780C273740C9
:100E70006E463770039EB446029F6E463678B74082
:100E80006646BE439027FF05B84201D100244EE7D5
:100E90000E4FB842FBD00E4CA04201D1022446E7CF
:100EA0000C4CA04200D03EE7032440E7FFBD002ADF
:100EB00001D08161704781627047000000100048D6
:100EC00000040140181002400800014000040048DE
:100ED00000080048000C004810B5C30018221A4052
:100EE000FF249440E3438907090E9140020004D493
:100EF000184892089200801806E0174A0007000F71
:100F000008388008800010180268134019430160F7
:100F100010BD80B5FFF7E0FF01BD010005D4012140
:100F2000C006C00E81400D480160704710B5401EDC
:100F300080214904884201D3012010BD084C606023
:100F400003210020C043FFF7C7FF0020A060072156
:100F5000216010BD00E400E01CED00E000E100E0D5
:100F600010E000E0000000000000000000000000B1
:100F70000000000000000000001000100010001031
:100F800000100010000000100000000000280028E1
:100F90000028000000000000000000000000000029
:100FA00000240024007C00240048007C0048004805
:100FB00000000000003800540050003800140054B5
:100FC0000054003800100000002000540058003089
:100FD0000028005400140008000000000010002841
:100FE00000280010003400480048003400000000D1
:100FF00000100010001000000000000000000000C1
:101000000000000000080010002000200020002048
:101010000020002000100008002000100008000838
:101020000008000800080008001000200010003828
:101030000010002800000000000000000000000078
:101040000000000000100010007C001000100000E4
:101050000000000000000000000000000000000090
:101060000000001000100010000000000000000050
:101070000000003800000000000000000000000038
:101080000000000000000000000000100000000050
:1010900000080008001000100010001000200020C0
:1010A00000000000003800440044005400440044A4
:1010B0000044003800000000001000300050001014
:1010C0000010001000100010000000000038004464
:1010D00000440004000800100020007C0000000014
:1010E00000380044000400180004000400440038E4
:1010F0000000000000080018002800280048007CBC
:101100000008000800000000007C0040004000785B
:1011100000040004004400380000000000380044CF
:101120000040007800440044004400380000000003
:10113000007C0004000800100010002000200020A7
:10114000000000000038004400440038004400441F
:10115000004400380000000000380044004400440F
:10116000003C0004004400380000000000000000C3
:10117000001000000000000000000010000000004F
:10118000000000000000001000000000000000103F
:101190000010001000000000000C00300040003083
:1011A000000C000000000000000000000000007CB7
:1011B0000000007C000000000000000000000000B3
:1011C000006000180004001800600000000000002B
:1011D0000038004400040008001000100000001057
:1011E0000000000000380044004C0054005C004047
:1011F00000400038000000000010002800280028EF
:101200000028007C004400440000000000780044F6
:1012100000440078004400440044007800000000CE
:1012200000380044004000400040004000440038C6
:1012300000000000007000480044004400440044E6
:101240000048007000000000007C00400040007C6E
:10125000004000400040007C00000000007C004096
:1012600000400078004000400040004000000000C6
:101270000038004400400040005C00440044003856
:1012800000000000004400440044007C004400448E
:10129000004400440000000000380010001000105E
:1012A00000100010001000380000000000040004CE
:1012B00000040004000400040044003800000000A2
:1012C00000440048005000600050004800480044BE
:1012D000000000000040004000400040004000408E
:1012E0000040007C000000000044006C006C0054D2
:1012F0000044004400440044000000000044006436
:10130000006400540054004C004C004400000000F5
:1013100000380044004400440044004400440038C5
:1013200000000000007800440044004400780040C1
:101330000040004000000000003800440044004429
:1013400000440044005400380004000000780044C9
:1013500000440044007800480048004400000000B9
:101360000038004400400030000800040044003809
:1013700000000000007C00100010001000100010A1
:10138000001000100000000000440044004400442D
:1013900000440044004400380000000000440044C1
:1013A0000044002800280028001000100000000061
:1013B00000440044005400540054006C00280028ED
:1013C0000000000000440028002800100010002841
:1013D00000280044000000000044004400280028C9
:1013E000001000100010001000000000007C00043D
:1013F00000080010001000200040007C00000000E9
:101400000018001000100010001000100010001054
:101410000010001800200020001000100010001024
:10142000000800080000000000300010001000104C
:1014300000100010001000100010003000100028F4
:101440000028004400000000000000000000000030
:10145000000000000000000000000000000000008C
:10146000000000FE0020001000000000000000004E
:1014700000000000000000000000000000380044F0
:10148000003C0044004C00340000000000400040DC
:10149000005800640044004400640058000000004C
:1014A00000000000003800440040004000440038C4
:1014B00000000000000400040034004C004400441C
:1014C000004C003400000000000000000038004420
:1014D000007C00400044003800000000000C0010B8
:1014E000007C001000100010001000100000000030
:1014F000000000000034004C00440044004C003464
:10150000000400780040004000580064004400449B
:1015100000440044000000000010000000700010B3
:10152000001000100010001000000000001000006B
:10153000007000100010001000100010001000E0FB
:101540000040004000480050006000500048004447
:1015500000000000007000100010001000100010CB
:10156000001000100000000000000000007800548F
:10157000005400540054005400000000000000001B
:10158000005800640044004400440044000000008F
:1015900000000000003800440044004400440038CB
:1015A00000000000000000000058006400440044F7
:1015B0000064005800400040000000000034004C6F
:1015C00000440044004C003400040004000000000B
:1015D000005800640040004000400040000000004F
:1015E00000000000003800440030000800440038CB
:1015F00000000000002000200078002000200020D3
:10160000002000180000000000000000004400441A
:1016100000440044004C00340000000000000000C2
:1016200000440044002800280028001000000000AA
:1016300000000000005400540054006C00280028F2
:10164000000000000000000000440028001000100E
:101650000028004400000000000000000044004496
:10166000002800280010001000100060000000009A
:10167000007C0008001000200040007C00000000FA
:1016800000180010001000100020002000100010B2
:1016900000100018001000100010001000100010C2
:1016A000001000100010001000300010001000109A
:1016B00000080008001000100010003000000000BA
:1016C00000000074004C000000000000000000005A
:1016D000F8B504001AD0A04D2078C00718D5686866
:1016E0000C21014004290CD068680C210140082914
:1016F00049D16868C02149020140802040028142EE
:1017000041D12868800303D56068002800D1E4E156
:10171000207880071FD5F827FF4368680C21014017
:101720000CD068680C210140082963D16868C02189
:10173000490201408020000281425BD12868800775
:1017400003D5E068012800D0C7E128680740206978
:10175000C00038432860207800077CD50227E06964
:101760000028686A68D0012101436962FFF798FA8E
:101770000600686A38406ED1FFF792FA801B022893
:10178000F7D90320F2BD6168012909D0B0480029CA
:101790000CD005290AD128688021C902014329609B
:1017A0002868802149020143296006E02968A94A86
:1017B0000A402A602968084028608027BF026068C4
:1017C00000280BD0FFF76CFA0600286838409FD13C
:1017D000FFF766FA801B6528F7D3D2E7FFF760FAB8
:1017E00006002868384093D0FFF75AFA801B652816
:1017F000F7D3C6E7E068002828680ED0012101432E
:101800002960FFF74DFA0600286880079DD4FFF78E
:1018100047FA801B0228F7D9B3E7012188432860E3
:10182000FFF73EFA06002868800794D5FFF738FADC
:10183000801B0228F7D9A4E7012188436862FFF7DB
:101840002FFA0600686A384005D0FFF729FA801B96
:101850000228F7D995E72078400761D5002000904D
:1018600080204005E969014008D1E9690143E96147
:10187000E96908400090009801200090994F38686D
:10188000C0050FD43868A90D01433960FFF708FA85
:1018900006003868C00505D4FFF702FA801B6528EA
:1018A000F7D36EE7A068012809D0002801D1286A83
:1018B0000AE00528286A07D1042101432962286A21
:1018C00001210143296206E0012188432862286A38
:1018D0000421884328620227A06800280CD0FFF763
:1018E000DFF90600286A384013D1FFF7D9F9801BC9
:1018F0007D498842F6D344E7FFF7D2F90600286A0B
:10190000384006D0FFF7CCF9801B77498842F6D3E0
:1019100037E70098002803D0E86974490140E9617D
:101920002078C00620D56069F826F64304220128F5
:1019300050D1686B02436A63686B0121014369639C
:10194000FFF7AEF90700686B800707D4FFF7A8F927
:10195000C01B0228F7D914E700100240686B06404C
:10196000A069C000304368630C272078800614D536
:10197000686838400C2809D068683840082843D186
:10198000686879030140780381423DD1686B800328
:1019900003D5206A012800D09FE0606A002800D1AA
:1019A0009DE069680F40082F00D181E08027BF04C7
:1019B0009149022828686DD101402960FFF770F92C
:1019C00006002868384047D0FFF76AF9801B0228D4
:1019D000F7D9D6E60421C9438842686B02D1014099
:1019E0006963BBE702436A63686B012188436863EC
:1019F000FFF756F90600686B8007B5D5FFF750F979
:101A0000801B0228F7D9BCE6206A0028686B0FD03B
:101A10008021490201436963FFF742F90600686BC0
:101A20008003BAD4FFF73CF9801B0228F7D9A8E657
:101A3000084901406963FFF733F90600686B8003CA
:101A4000ABD5FFF72DF9801B0228F7D999E600BF27
:101A5000FFFFFBFFFFFFFEFFE86A0F218843216BBA
:101A60000143E962686879490140E06A0843A16A74
:101A7000014369602868790801432960FFF710F97C
:101A80000400286838402AD1FFF70AF9001B022811
:101A9000F7D976E601402960FFF702F904002868CB
:101AA00038401CD0FFF7FCF8001B0228F7D968E685
:101AB000012812D06868E96AC02252020240A36A73
:101AC0009A420AD10907090F226B914205D1F021F0
:101AD00089030140E06A814201D00120F2BD00206B
:101AE000F2BD00000070004089130000FFFFFFEF0F
:101AF000F8B5040066D0009155480068C107C90FC9
:101B0000009881420CD25248016801229143009A08
:101B10000A4302600068C107C90F0098814251D191
:101B200021684C4D022001420CD0490704D5696858
:101B3000E022D2000A436A606968F0229143A268F9
:101B40000A436A600127216839402BD0616802048A
:101B5000012901D1286808E0022903D12868800101
:101B600009D42FE0032903D1686B024003D129E097
:101B70002A68104026D068680322904301436960B8
:101B8000FFF78EF8060068680C210140606880004D
:101B9000814207D0FFF784F8801B2F498842F2D397
:101BA0000320F2BD2A48009902683A4091420BD2C4
:101BB0000168B943009A0A43026000680740009830
:101BC000874201D00120F2BD2078400705D5686822
:101BD00022490140E0680843686000F00FF820499E
:101BE0006A681206120F895CC8401E49086003200B
:101BF00000F050F80020F2BDFFFFFFFEF0B51A49DB
:101C00000B681A481A4A0C241C40082C02D00C2CD1
:101C10001AD0F0BD0F2500BF16A49E0C2E40A45D67
:101C200018A6896A0D40715DC0256D022E001E4008
:101C300080277F02BE4203D02B40AB4200D1100070
:101C400000F04AF86043F0BD1000F0BDFF7FC2FF16
:101C5000002002400010024089130000FFF8FFFF3F
:101C600020340008140000200410024000127A0002
:101C7000006CDC0202030405060708090A0B0C0DC0
:101C80000E0F10100102030405060708090A0B0CC9
:101C90000D0E0F1038B505000D4CFA20800021788C
:101CA00000F01AF801000B48006800F015F8FFF783
:101CB0003DF900280AD1042D08D200222900002075
:101CC000C043FFF726F9A560002032BD012032BDD8
:101CD0000800002014000020094214D088420FD3CD
:101CE0000122030C01D100041204002300185B41FF
:101CF0008B4200D35B1A5241F8D319001000704791
:101D000001000020704708B500F002F808BDFEE7AA
:101D10007047FEE700000000000000000000000027
:101D20000000000000000000000000018000000032
:101D30000000000000000000000000018000000022
:101D40000000000000000000000000018000000012
:101D5000000000000000000000000003C0000000C0
:101D600000000000000000000000007FFE000000F6
:101D700000000000000000000000003FFC00000028
:101D800000000000000000000000001FF80000003C
:101D900000000000000000000000000FF000000044
:101DA000000000000000000000000007E00000004C
:101DB00000000000000000000000000FF000000024
:101DC00000000000000000000000000E7000000095
:101DD00000000000000000000000000C30000000C7
:101DE00000000000000000000000000908000000E2
:101DF0000000000000000000000000018000000062
:101E0000000000000000000000000003C00000000F
:101E1000000000000000000000000007E0000000DB
:101E200000000000000000000000000FF0000000B3
:101E300000000000000000000000000FF0000000A3
:101E400000000000000000000000001FF80000007B
:101E500000000000000000000000003FFC00000047
:101E600000000000000000000000007FFE000000F5
:101E700000000000000000000000007FFF000000E4
:101E80000000000000000000000000FFFF00000054
:101E90000000000000000000000001FFFF800000C3
:101EA0000000000000000000000003FFFFC0000071
:101EB0000000000000000000000007FFFFE000003D
:101EC0000000000000000000000007FFFFE000002D
:101ED000000000000000000000000FFFFFF0000005
:101EE000000000000000000000001FFFFFF80000DD
:101EF0000000000000000000000007FFFFF00000ED
:101F00000000000000000000000000DFFD000000F5
:101F10000000000000000000000001E000000000E0
:101F20000000000000000000000001FE8000000032
:101F30000000000000000000000003FFFFC00000E0
:101F40000000000000000000000007FFFFE00000AC
:101F5000000000000000000000000FFFFFF0000084
:101F6000000000000000000000001FFFFFF800005C
:101F7000000000000000000000003FFFFFFC000028
:101F8000000000000000000000003FFFFFFC000018
:101F9000000000000000000000007FFFFFFE0000C6
:101FA00000000000000000000000FFFFFFFF000035
:101FB00000000000000000000001FFFFFFFF8000A4
:101FC00000000000000000000003FFFFFFFFC00052
:101FD00000000000000000000003FFFFFFFFE00022
:101FE00000000000000000000007FFFFFFFFE0000E
:101FF00000000000000000000003FFFFFFFFE00002
:1020000000000000000000000000FFFFFFFF0000D4
:102010000000000000000000000035FFFFD00000BD
:102020000000000000000000000078000000000038
:1020300000000000000000000000FF80000200001F
:1020400000000000000000000001FFFEAAFF800069
:1020500000000000000000000001FFFFFFFFC000C3
:1020600000000000000000000003FFFFFFFFC000B1
:1020700000000000000000000007FFFFFFFFE0007D
:102080000000000000000000000FFFFFFFFFF00055
:102090000000000000000000001FFFFFFFFFF8002D
:1020A0000000000000000000003FFFFFFFFFFC00F9
:1020B0000000000000000000007FFFFFFFFFFE00A7
:1020C000000000000000000000FFFFFFFFFFFF0016
:1020D000000000000000000000FFFFFFFFFFFF0006
:1020E0000000000000000000003FFFFFFFFFFC00B9
:1020F00000000000000000000001FFFFFFFFC00023
:102100000000000000000000000005FFFFD00000FC
:1021100000000000000000000000000000000000BF
:10212000000000000000000000000000000550005A
:10213000000000000000000000000000001FFD0083
:10214000000000000000000000000000003FFFE071
:10215000000000000000000000000000003FFFFA47
:10216000000000000000000000000003803FFFFFAF
:10217000800000000000000000000003E03FFFFFBF
:10218000E00000000000000000000003E003FFFF8B
:10219000F00000000000000000000FE1E0003FFF41
:1021A000FC0000000000000000001FE1E0000FFF45
:1021B000FC0000000000000000001FF1E00007FF2D
:1021C000FC00000000000000002A01F1E00003FF15
:1021D000FC00000000000000007E00F1C00001FFD4
:1021E000FC0000000000000001FE00F1C00000FF44
:1021F000FC0000000000000003FE00F1C02A007F88
:10220000FC0000000000000007FC00F002FE007F60
:10221000F8000000000000000FFC00F003FE003F8B
:10222000F8000000000000003FF800780FF7A03F22
:10223000F8000000000000007FF800781F7FF41F06
:10224000F000000000000001FFF800581FFFFE1F13
:10225000F000000000000003FFF00B401FFFFF8FA5
:10226000F000000000000007FFF03FC01FFFFFCF9D
:10227000F00000000000000FFFF07FF01FFFFFE7FD
:10228000F000000000000017FFE0FFF81FFFDFE391
:10229000F00000000000001FFFE0F57C0FFFFDF0E4
:1022A000E00000000000001FFFC1FFBC07FFFFF0BF
:1022B000000000000000001FFFC1FFFE05FFFFFE41
:1022C000000000000000001FFFC17FDE7FFFFFFE57
:1022D000000000000000001FFFC1FFFEFFFFBFFF66
:1022E000000000000000001FFF83FFFFFFFFFFF75B
:1022F000000000000000001FFF87FFFFFFFFDFFF5F
:102300000000000000000017FF87FFFFFFFFF6F747
:10231000800000000000000FFF8FFFFFFFFFFFF7AE
:102320008000000000000003FF0FFFFFE0FFFFF749
:102330008000000000000001FF0FFFFFC2B7FFF7A1
:102340008000000000000000FF0FF7FF83FFFFF791
:1023500080000000000000003F0FF7FF73FFFFE365
:1023600080000000000000002F0FFFFF7BFFFFE751
:1023700080000000000000001F0FFFFD79FFFFE755
:1023800080000000000000000F77FFFBFFFFFFE769
:1023900080000000000000000F6FFFFFFFFFFFEF55
:1023A00080000000000000000F77FBFFFFFFFFF739
:1023B00000000000000000000F7FB7FFFFFFFFFFDD
:1023C00000000000000000000F7BFFFFFFFFFFFE8A
:1023D00000000000000000000F3BFFFFFFFFFFFEBA
:1023E00000000000000000000F3DFFFFFFFFFFFCAA
:1023F00000000000000000000E3DFFFFFFFFFFFC9B
:102400000000000000000000003CFFFFFFFFFFF89D
:102410000000000000000000001E7FFFFF7FFFF8AB
:102420000000000000000000001E7FFFFFAFFFF86B
:102430000000000000000000001F7FFFFF7DFFF88C
:102440000000000000000000000F3FFFFEFF7FF8CB
:102450000000000000000000000FBFFFFBFFBFF8FE
:1024600000000000000000000007BFFFFFFFEFF8C2
:1024700000000000000000000007FFFFF7FFFFE87A
:1024800000000000000000000003FFFFFFFFFFF05E
:1024900000000000000000000001FFFFEFFFFBC094
:1024A00000000000000000000000FFFFFFFFF80038
:1024B000000000000000000000003FFFDFFFF80008
:1024C000000000000000000000001FFFFFFFF00000
:1024D0000000000000000000000001FFFFFE0000FF
:1024E0000000000000000000000000FFDF8000008E
:1024F00000000000000000000000003F9C00000001
:1025000000000000000000000000001600000000B5
:1025100000000000000000000000000000001F009C
:1025200000000000000000000000000000003F006C
:10253000000000000000000000000000000F7F000D
:10254000000000000000000000000000000F7E00FE
:102550000000000000000000003FC001F80F7C00F8
:10256000000000000000000001FFF001FE1F7C00E1
:10257000000000000000000001FFFC01FF9FFFF0D1
:10258000000000000000000001FDFE01FFFFFFF061
:10259000000000000000000001FE3E0007FFBFF049
:1025A0007C0000000000000001FFFFFFFDFFFF3F77
:1025B000FC0000000000000000FFFFFFFEFFF83FEE
:1025C000FC0000000000000000FFFFFFFE3FF3FFE3
:1025D000FC0000000000000000FFFFFFFE1FE7FFFF
:1025E000F00000000000000000FFE07FFE0FFFFF92
:1025F000E00000000000000000FFC0FFFF8FFFFFB1
:10260000C00000000000000000FF81FFFFC7DFFFE7
:10261000C00000000000000000FE03FFFFE7BFFF56
:10262000800000000000000000FE03FEFFF3FFFF3B
:10263000F80000000000000000FE07FFFFF3FFFFAE
:10264000FE0000000000000000FE1FFFFFFFFFFF74
:10265000FF00000000000000007E1FBFFFFFFFFF23
:10266000FF80000000000000007E1F1FFFFFFFFF33
:10267000EFC0000000000000000E3EFFFFFFFFFF64
:10268000FFC000000000000007FE3EFFFFFFFFFF4D
:10269000FFC00000000000001FFE7DFFFFFFF3FFF2
:1026A000FFC00000000000003FFE79FFFFFFF9FFC0
:1026B000FF800000000000007FFFFBFFFFFFF8FF2E
:1026C000FFC0000000000000FC3FFBDFFFFFF8FF41
:1026D000FFE0000000000000F8FFFFFF7FFFF8FFB1
:1026E000FFE0000000000001F7FF0FFF9FFFF8FF71
:1026F000F3E0000000000003FFFC0FFFFFFFF8FF06
:10270000C0E0000000000003DFFC0FFFFFFFF8FF48
:102710008000000000000003BFF80FFFFFFFF9F08A
:10272000000000000000000E3FF9CFFFFFFFF9F0AE
:10273000000000000000001EFFF9E7FFFFFFF3E0CC
:10274000000000000000003FFFF1E7FFFFF3E7F8A3
:10275000000000000000007FFFF1F3FFFFCFEFFC5F
:1027600000000000000000FFFFF1F3FFFF1FDFFF8C
:1027700000000000000001FFFFF3FBFDFE3F7FFFB4
:1027800080000000000003FFFFF3FFFFC07EFFFF9B
:1027900080000000000003FFFFE3FFFFFF79FFFF61
:1027A000C0000000000003FFFDE3FFFFFF77FFFF15
:1027B000C00000000000007F81F8FFBFFFFFFE7F28
:1027C000E00000000000000001FC7FFFFFFFFE3F73
:1027D000E0000000000000007CFF3FFE3FFFFC0324
:1027E000E000000000000001FFFF9FFE3FFFF80334
:1027F000E000000000000001FFFFEFFFC0FFF83B1A
:10280000E000000000000001FFFFFFFFF81FFF7F56
:10281000E000000000000001FFFDFFFFFF8FFFFE52
:10282000E0000000000000007FFCFFFFFFFFFFFE54
:10283000E0000000000000000EFE3FFFFFFFFFE091
:10284000E0000000000000000FFE0FFFFFFF80000F
:1028500000000000000000000F7E0F01FFF00000EC
:1028600000000000000000001FFC0FC1FFF000008E
:1028700000000000000000003F9C0FC1FFF00000BE
:1028800000000000000000007FE007C1FFE0000042
:1028900000000000000000007FF007E1FFC0000022
:1028A00000000000000000007FF003F9FF000000BE
:1028B00000000000000000007FF001FDFE000000AD
:1028C00000000000000000007FC0007FFC0000004E
:1028D00000000000000000007C00003FF800000045
:1028E00000000000000000007800000FF000000071
:1028F000000000000000000000000007F0000000E1
:10290000000000000000000000000001F0000000D6
:10291000000000000000000000000007FFE00000D1
:1029200000000000000000000000000FFFF00000A9
:1029300000000000000000000000001FFFF8000081
:102940000000000000000000000000FF3CFC000050
:10295000000000000000000000001FFC003FC0005D
:10296000000000000000000000007FF8001FE000F1
:1029700000000000000000000001FFDF7FFFF0000A
:1029800000000000000000000003FFFFFFFFF80050
:1029900000000000000000000003EF7FFFFFFC00CC
:1029A00000000000000000000007DFFBEFC3FF0095
:1029B00000000000000000000007BFFFDFFDFF80F7
:1029C000000000000000000000077FFFFFFEFF8006
:1029D000000000000000000000077FFFFFFF3F80B5
:1029E00000000000000000000007FFFFFFFF9F80C5
:1029F0000000000000000000001FFFFFFFF79F80A5
:102A00000000000000000000003FFDFFFFF78F8086
:102A10000000000000000000003FFDFFFFF38FC03A
:102A20000000000000000000007FFDDFFFF38FC00A
:102A30000000000000000000007FB9FFFFF78FC01A
:102A400000000000000000000077BDFFFFF78FE0EE
:102A5000000000000000000000F7BDFFFFF7CFE01E
:102A6000000000000000000000F3FDFFFFEFDFE0CA
:102A7000000000000000000000E3DEFF3FFFFEF06A
:102A8000000000000000000000E3FFFE3FDFFCF05C
:102A9000000000000000000000F1EFFFFFBFFC702D
:102AA000000000000000000000F8E7FFFE7FF8F0E3
:102AB00000000000000000000078F3FFFFFFF0F0CE
:102AC0000000000000000000007CF1FFFFFFF1E0CB
:102AD0000000000000000000003EFC7FFFFEF3E06D
:102AE000000000000000000001FE7F3FFFFEFFC06D
:102AF00000000000000000000FFF3F87FF3DFF8047
:102B000000000000000000001FFF8FC01FFDFF003D
:102B100000000000000000003FFFE7E007F9FEFEB4
:102B200000000000000000003FFFFBF03FF0FFFF4F
:102B3000E0000000000000003FFFFFF8FFE0FFFFA3
:102B4000F00000000000000007DFFFFFFFC0FFDF14
:102B5000F00000000000000003CF1FFFFFC1FC7F5A
:102B6000F00000000000000003E787FFFDC1F9FF4F
:102B7000E00000000000000001E781FC0003FBFF13
:102B8000C00000000000000001F7C1FE001FFFF7B9
:102B9000800000000000000000FFF03F801FFFCF1A
:102BA0000000000000000000007DFC1FF3FFFF0F8D
:102BB0000000000000000000003FFE07FFFFFE1EB7
:102BC0000000000000000000001FFF07FFFFFC1EC8
:102BD0000000000000000000000FFF8FFF9FF83E84
:102BE00000000000000000000001F7FFFE0FF07C75
:102BF0000000000000000000000007FFFE0FE0F8EA
:102C00000000000000000000000007FDFF0FC3F0FF
:102C1000000000000000000000003FF1FF0FFFE097
:102C200000000000000000000001FFF9FF3FFFC0AE
:102C300000000000000000000003FFFFFF7FFF0016
:102C400000000000000000000007FFFFFFFF000081
:102C50000000000000000000000FFFFFFFFE00006A
:102C60000000000000000000000F7EFFFFFC0000DD
:102C70000000000000000000001EFCFFFFF8000044
:102C80000000000000000000001FF9EFFFF000004E
:102C90000000000000000000003FE1E7FFE000004E
:102CA0000000000000000000003FE3C3FFC0000080
:102CB0000000000000000000007FCFC1FF80000086
:102CC0000000000000000000007FFF81FE00000007
:102CD0000000000000000000007FFF00F80000007E
:102CE0000000000000000000007FFE007E000000E9
:102CF0000000000000000000000000003E00000096
:102D00000000000000000000000000003E00000085
:102D100000000000F0B5C1B05D1CFF26B61CB54236
:102D200012D201AD2970002103E0565C6F187E704D
:102D3000491C9942F9DB642100915B1C9BB201AAFA
:102D400001009648FDF715FA42B0E0BDE0B501ABD1
:102D500019705A7064210091022301AA01008F4862
:102D6000FDF707FA07BD80B5AE2200217820FFF7F6
:102D7000EDFFB02200217820FFF7E8FF812200213B
:102D80007820FFF7E3FFFF2200217820FFF7DEFF26
:102D9000AD2200217820FFF7D9FF8B220021782077
:102DA000FFF7D4FF322200217820FFF7CFFFAF22B8
:102DB00000217820FFF7CAFF01BD70B50C00150097
:102DC0001E00B022024300217820FFF7BFFFA01CA5
:102DD0000207120F00217820FFF7B8FFA01C00099E
:102DE0001022024300217820FFF7B0FF33002A00B1
:102DF00040217820FFF78EFF70BD38B50024050014
:102E000058E0F6B583B0D90802916946098AC91D10
:102E10000022C9082EE000230025A610760F019697
:102E20000095D500ED180E007543019E3619F61079
:102E3000AD19ADB2465DB4460726371B019E361963
:102E4000F82535407D196646EE40F607F60F9E40A0
:102E5000009D2E4335005B1C072BDEDD039B6E4679
:102E6000368A564336199D55641C6B461B8A9C4214
:102E7000D1DB521C029B9A4201DA0024F5E705B02F
:102E8000F0BD38B5464D8421C9002800FDF73CFF50
:102E900000248423E0B2842148432A180021E0B2B0
:102EA000FFF78BFF641CE0B20828F2DB31BD38B5B8
:102EB00000243C4D80232006400C2A180021E0B25B
:102EC000FFF77BFF641CE0B20828F3DB31BD8028EC
:102ED00000DB704710B5402910DA334CCB08DB011A
:102EE000C0182018037801244907490F8C40012A93
:102EF00002D11C43047010BDA343037010BDFEB586
:102F00002A4B1B886C4663806B465B880C781B19C8
:102F1000802B09DA254B5B886C46A3806B469B8827
:102F20004C781B19402B01DB0020FEBD00276B46AF
:102F30001870150001E002997F1C4878874223D25F
:102F40004A686B461B78203B4343D8194000165A09
:102F50000024029103E06A1E9241D20F0EE0029813
:102F600000788442E7D268468088C1196846408864
:102F700000193200A2401204EDD52A0089B280B2B5
:102F8000FFF7A5FF641CEAE7684640880978401807
:102F90000649088068460078FEBD00003C0C002011
:102FA000180000203808002038040020900C002071
:102FB00070B504000E00150000E0641C20780028A5
:102FC00007D02A003100FFF79AFF21788842F4D019
:102FD000084670BD80B5FFF754FF564956488078C3
:102FE000002806D0022816D011D304281BD016D3EF
:102FF00001BD52480021018041800122504900BF9B
:103000006FA0FFF7D5FF4F48FFF7F7FE01BD402344
:1030100080224D480AE0402380224C4806E04023AD
:1030200080224B4802E0402380224A48FFF7E9FE15
:10303000FFF73DFF01BDF8B586B000F0C7F800F01E
:1030400093F8142101A8FDF75FFE8020C0034249D8
:103050000A6802430A600A681040009000988020C5
:10306000C0020A6802430A6009680840009000989C
:103070003A4F0022802149013800FDF718FF8020D7
:10308000400101900126029600250395049501A9AF
:103090003800FDF741FEF02001908420800302906B
:1030A000039601A93800FDF737FE00220021072012
:1030B000FDF72FFF0720FDF730FF1F4C2848606009
:1030C0002848A060E56026616561A561E56125622B
:1030D0006562201DFCF7F4FF002801D000F06DF8B8
:1030E0000021201D00F082F8002801D000F065F8D2
:1030F0000021201D00F097F8002801D000F05DF8B5
:10310000002231033800FDF7D2FE2580FFF72BFEA9
:10311000FFF7B7FEFFF75EFF20780128FCD1A0780B
:10312000401CC1B2042900DD0020A070FFF752FF4F
:103130002570F1E738080020380C0020900C0020A2
:10314000000000203804002014250008142900087D
:10315000141D000814210008141002400004004847
:10316000005800400B02000018B591B0342104A8AB
:10317000FDF7CAFD684600210022002300241EC07E
:103180000220049001200790102008900D9404A8BC
:10319000FEF79EFA002801D000F00FF807200090FB
:1031A00001940294039400216846FEF7A1FC0028D4
:1031B00001D000F002F812B010BD72B6FEE70000B8
:1031C000202057656C636F6D6521000080B506484F
:1031D000016810220A4302600320FEF75BFDFDF741
:1031E00009FD002002BD00000020024070B5020071
:1031F00040325378202B14D14023C35C012B10D0D4
:103200000123137024245470046825689D432560AD
:1032100004682568164E2E402660046825682943F8
:103220001CE0022070BD70B5020040325378202BA4
:1032300012D14023C35C012B0ED001231370242430
:103240005470046825689D43256004682568094E0C
:103250002E400902314301E0022070BD2160006868
:1032600001680B430360202050700020107070BD77
:10327000FFEFFFFFFFF0FFFFFEE7FEE7704770473D
:1032800080B500F027F801BD10B501200E4980225D
:103290000E4B1C68144001D01A60087040221C6854
:1032A000144001D01A60487010BD80B5084801680C
:1032B0008969E022D2000A4002D0FDF723F801BD5F
:1032C000FDF716F801BD0000380C00201404014081
:1032D0003C0C002002484168027889184160704720
:1032E0000800002070B40121002213E00368001DD3
:1032F0000B4202D04D46EB185B1E1A601B1D241FAB
:10330000042CFAD21D00A60701D51A80AD1C0C4072
:1033100000D02A700468001D002CE7D170BC7047F3
:1033200030B401210EE00368C318446808300C4231
:1033300002D04D462C19641E1D6825601B1D241DDE
:10334000121FF9D10268001D002AECD130BC704771
:1033500010B5074979441831064C7C44163404E012
:10336000081D0A68891888470100A142F8D110BDDC
:1033700008000000280000006DFFFFFF7C0C00002B
:10338000180000200000000099FFFFFF1800000057
:1033900074000000000000200000000000F00DF8A4
:1033A000002801D0FFF7D4FF00BF00BF002000BFFE
:1033B00000BFFFF740FE00F002F80120704780B523
:1033C00000F002F801BDFEE70746384600F002F8BB
:1033D000FBE7FEE780B500BF00BF024A11001820DE
:1033E000ABBEFBE7260002000548014603B4684671
:1033F00080F3098800BF00BF00BF00BFFFF7CEFF0A
:10340000A5EDF5FE070A0000640F000801000000AA
:10341000000000000400000000127A007047000065
:103420000000000000000000010203040607080974
:1034300001488047014800471D340008E93300086F
:10344000FEE7FEE7FEE7FEE7FEE7FEE7FEE7FEE754
:10345000FEE7FEE7FEE7FEE7FEE7FEE7FEE7FEE744
:10346000FEE7FEE7FEE7FEE7FEE7FEE7FEE7FEE734
:02347000FEE775
:04000005080033E9D3
:00000001FF
